{"abi":[{"type":"constructor","inputs":[{"name":"_circleToken","type":"address","internalType":"address"},{"name":"_circleOwner","type":"address","internalType":"address"},{"name":"_stakingPool","type":"address","internalType":"address"}],"stateMutability":"nonpayable"},{"type":"receive","stateMutability":"payable"},{"type":"function","name":"WEIGHT_PRECISION","inputs":[],"outputs":[{"name":"","type":"uint256","internalType":"uint256"}],"stateMutability":"view"},{"type":"function","name":"addRevenueSource","inputs":[{"name":"name","type":"string","internalType":"string"}],"outputs":[],"stateMutability":"nonpayable"},{"type":"function","name":"circleOwner","inputs":[],"outputs":[{"name":"","type":"address","internalType":"address"}],"stateMutability":"view"},{"type":"function","name":"circleToken","inputs":[],"outputs":[{"name":"","type":"address","internalType":"address"}],"stateMutability":"view"},{"type":"function","name":"claimRevenue","inputs":[{"name":"distributionId","type":"uint256","internalType":"uint256"}],"outputs":[],"stateMutability":"nonpayable"},{"type":"function","name":"collectRevenue","inputs":[{"name":"sourceId","type":"uint256","internalType":"uint256"}],"outputs":[],"stateMutability":"payable"},{"type":"function","name":"commentWeight","inputs":[],"outputs":[{"name":"","type":"uint256","internalType":"uint256"}],"stateMutability":"view"},{"type":"function","name":"contributorsWeight","inputs":[],"outputs":[{"name":"","type":"uint256","internalType":"uint256"}],"stateMutability":"view"},{"type":"function","name":"createDistribution","inputs":[{"name":"amount","type":"uint256","internalType":"uint256"}],"outputs":[],"stateMutability":"nonpayable"},{"type":"function","name":"distributions","inputs":[{"name":"","type":"uint256","internalType":"uint256"}],"outputs":[{"name":"distributionId","type":"uint256","internalType":"uint256"},{"name":"totalAmount","type":"uint256","internalType":"uint256"},{"name":"timestamp","type":"uint256","internalType":"uint256"},{"name":"tokenHoldersShare","type":"uint256","internalType":"uint256"},{"name":"contributorsShare","type":"uint256","internalType":"uint256"},{"name":"stakingPoolShare","type":"uint256","internalType":"uint256"},{"name":"snapshotTotalSupply","type":"uint256","internalType":"uint256"},{"name":"isFinalized","type":"bool","internalType":"bool"}],"stateMutability":"view"},{"type":"function","name":"getClaimableRevenue","inputs":[{"name":"distributionId","type":"uint256","internalType":"uint256"},{"name":"user","type":"address","internalType":"address"}],"outputs":[{"name":"","type":"uint256","internalType":"uint256"}],"stateMutability":"view"},{"type":"function","name":"getDistributions","inputs":[{"name":"startId","type":"uint256","internalType":"uint256"},{"name":"count","type":"uint256","internalType":"uint256"}],"outputs":[{"name":"","type":"tuple[]","internalType":"struct RevenueDistribution.Distribution[]","components":[{"name":"distributionId","type":"uint256","internalType":"uint256"},{"name":"totalAmount","type":"uint256","internalType":"uint256"},{"name":"timestamp","type":"uint256","internalType":"uint256"},{"name":"tokenHoldersShare","type":"uint256","internalType":"uint256"},{"name":"contributorsShare","type":"uint256","internalType":"uint256"},{"name":"stakingPoolShare","type":"uint256","internalType":"uint256"},{"name":"snapshotTotalSupply","type":"uint256","internalType":"uint256"},{"name":"isFinalized","type":"bool","internalType":"bool"}]}],"stateMutability":"view"},{"type":"function","name":"getStats","inputs":[],"outputs":[{"name":"totalRevenue","type":"uint256","internalType":"uint256"},{"name":"totalDist","type":"uint256","internalType":"uint256"},{"name":"distributionCount","type":"uint256","internalType":"uint256"}],"stateMutability":"view"},{"type":"function","name":"getUserContribution","inputs":[{"name":"user","type":"address","internalType":"address"}],"outputs":[{"name":"","type":"tuple","internalType":"struct RevenueDistribution.UserContribution","components":[{"name":"postCount","type":"uint256","internalType":"uint256"},{"name":"commentCount","type":"uint256","internalType":"uint256"},{"name":"inviteCount","type":"uint256","internalType":"uint256"},{"name":"lastUpdate","type":"uint256","internalType":"uint256"},{"name":"contributionScore","type":"uint256","internalType":"uint256"}]}],"stateMutability":"view"},{"type":"function","name":"hasClaimed","inputs":[{"name":"","type":"uint256","internalType":"uint256"},{"name":"","type":"address","internalType":"address"}],"outputs":[{"name":"","type":"bool","internalType":"bool"}],"stateMutability":"view"},{"type":"function","name":"inviteWeight","inputs":[],"outputs":[{"name":"","type":"uint256","internalType":"uint256"}],"stateMutability":"view"},{"type":"function","name":"nextDistributionId","inputs":[],"outputs":[{"name":"","type":"uint256","internalType":"uint256"}],"stateMutability":"view"},{"type":"function","name":"nextSourceId","inputs":[],"outputs":[{"name":"","type":"uint256","internalType":"uint256"}],"stateMutability":"view"},{"type":"function","name":"owner","inputs":[],"outputs":[{"name":"","type":"address","internalType":"address"}],"stateMutability":"view"},{"type":"function","name":"postWeight","inputs":[],"outputs":[{"name":"","type":"uint256","internalType":"uint256"}],"stateMutability":"view"},{"type":"function","name":"renounceOwnership","inputs":[],"outputs":[],"stateMutability":"nonpayable"},{"type":"function","name":"revenueSources","inputs":[{"name":"","type":"uint256","internalType":"uint256"}],"outputs":[{"name":"name","type":"string","internalType":"string"},{"name":"totalCollected","type":"uint256","internalType":"uint256"},{"name":"isActive","type":"bool","internalType":"bool"}],"stateMutability":"view"},{"type":"function","name":"stakingPool","inputs":[],"outputs":[{"name":"","type":"address","internalType":"address"}],"stateMutability":"view"},{"type":"function","name":"stakingPoolWeight","inputs":[],"outputs":[{"name":"","type":"uint256","internalType":"uint256"}],"stateMutability":"view"},{"type":"function","name":"toggleRevenueSource","inputs":[{"name":"sourceId","type":"uint256","internalType":"uint256"}],"outputs":[],"stateMutability":"nonpayable"},{"type":"function","name":"tokenBalanceSnapshots","inputs":[{"name":"","type":"uint256","internalType":"uint256"},{"name":"","type":"address","internalType":"address"}],"outputs":[{"name":"","type":"uint256","internalType":"uint256"}],"stateMutability":"view"},{"type":"function","name":"tokenHoldersWeight","inputs":[],"outputs":[{"name":"","type":"uint256","internalType":"uint256"}],"stateMutability":"view"},{"type":"function","name":"totalDistributed","inputs":[],"outputs":[{"name":"","type":"uint256","internalType":"uint256"}],"stateMutability":"view"},{"type":"function","name":"totalRevenueCollected","inputs":[],"outputs":[{"name":"","type":"uint256","internalType":"uint256"}],"stateMutability":"view"},{"type":"function","name":"totalUniqueClaims","inputs":[],"outputs":[{"name":"","type":"uint256","internalType":"uint256"}],"stateMutability":"view"},{"type":"function","name":"transferOwnership","inputs":[{"name":"newOwner","type":"address","internalType":"address"}],"outputs":[],"stateMutability":"nonpayable"},{"type":"function","name":"updateContribution","inputs":[{"name":"user","type":"address","internalType":"address"},{"name":"postCount","type":"uint256","internalType":"uint256"},{"name":"commentCount","type":"uint256","internalType":"uint256"},{"name":"inviteCount","type":"uint256","internalType":"uint256"}],"outputs":[],"stateMutability":"nonpayable"},{"type":"function","name":"updateContributionWeights","inputs":[{"name":"_postWeight","type":"uint256","internalType":"uint256"},{"name":"_commentWeight","type":"uint256","internalType":"uint256"},{"name":"_inviteWeight","type":"uint256","internalType":"uint256"}],"outputs":[],"stateMutability":"nonpayable"},{"type":"function","name":"updateStakingPool","inputs":[{"name":"_stakingPool","type":"address","internalType":"address"}],"outputs":[],"stateMutability":"nonpayable"},{"type":"function","name":"updateWeights","inputs":[{"name":"_tokenHoldersWeight","type":"uint256","internalType":"uint256"},{"name":"_contributorsWeight","type":"uint256","internalType":"uint256"},{"name":"_stakingPoolWeight","type":"uint256","internalType":"uint256"}],"outputs":[],"stateMutability":"nonpayable"},{"type":"function","name":"userContributions","inputs":[{"name":"","type":"address","internalType":"address"}],"outputs":[{"name":"postCount","type":"uint256","internalType":"uint256"},{"name":"commentCount","type":"uint256","internalType":"uint256"},{"name":"inviteCount","type":"uint256","internalType":"uint256"},{"name":"lastUpdate","type":"uint256","internalType":"uint256"},{"name":"contributionScore","type":"uint256","internalType":"uint256"}],"stateMutability":"view"},{"type":"event","name":"ContributionUpdated","inputs":[{"name":"user","type":"address","indexed":true,"internalType":"address"},{"name":"postCount","type":"uint256","indexed":false,"internalType":"uint256"},{"name":"commentCount","type":"uint256","indexed":false,"internalType":"uint256"},{"name":"inviteCount","type":"uint256","indexed":false,"internalType":"uint256"},{"name":"score","type":"uint256","indexed":false,"internalType":"uint256"}],"anonymous":false},{"type":"event","name":"DistributionCreated","inputs":[{"name":"distributionId","type":"uint256","indexed":true,"internalType":"uint256"},{"name":"totalAmount","type":"uint256","indexed":false,"internalType":"uint256"},{"name":"tokenHoldersShare","type":"uint256","indexed":false,"internalType":"uint256"},{"name":"contributorsShare","type":"uint256","indexed":false,"internalType":"uint256"},{"name":"stakingPoolShare","type":"uint256","indexed":false,"internalType":"uint256"}],"anonymous":false},{"type":"event","name":"OwnershipTransferred","inputs":[{"name":"previousOwner","type":"address","indexed":true,"internalType":"address"},{"name":"newOwner","type":"address","indexed":true,"internalType":"address"}],"anonymous":false},{"type":"event","name":"RevenueClaimed","inputs":[{"name":"distributionId","type":"uint256","indexed":true,"internalType":"uint256"},{"name":"user","type":"address","indexed":true,"internalType":"address"},{"name":"amount","type":"uint256","indexed":false,"internalType":"uint256"}],"anonymous":false},{"type":"event","name":"RevenueCollected","inputs":[{"name":"sourceId","type":"uint256","indexed":true,"internalType":"uint256"},{"name":"amount","type":"uint256","indexed":false,"internalType":"uint256"}],"anonymous":false},{"type":"event","name":"RevenueSourceAdded","inputs":[{"name":"sourceId","type":"uint256","indexed":true,"internalType":"uint256"},{"name":"name","type":"string","indexed":false,"internalType":"string"}],"anonymous":false},{"type":"event","name":"RevenueSourceUpdated","inputs":[{"name":"sourceId","type":"uint256","indexed":true,"internalType":"uint256"},{"name":"isActive","type":"bool","indexed":false,"internalType":"bool"}],"anonymous":false},{"type":"event","name":"WeightsUpdated","inputs":[{"name":"tokenHoldersWeight","type":"uint256","indexed":false,"internalType":"uint256"},{"name":"contributorsWeight","type":"uint256","indexed":false,"internalType":"uint256"},{"name":"stakingPoolWeight","type":"uint256","indexed":false,"internalType":"uint256"}],"anonymous":false}],"bytecode":{"object":"0x6080346200020f57601f620021ce38819003918201601f19168301916001600160401b0383118484101762000214578084926060946040528339810103126200020f576200004d816200024a565b906020906200006c6040620000648484016200024a565b92016200024a565b6001600081815581546001600160a01b0319808216339081179094556040519790956001600160a01b039594909386938416907f8be0079c531659141344cd1fd0a4f28419497f9722a3daafe3b4186f6b6457e09080a3611388600c55610bb8600d556107d0600e556064600f5560146010556101f460115516958615620001dd575082168015620001a85762000198958460025416176002558360035416176003551690600454161760045562000145620001276200022a565b600c81526b54726164696e67204665657360a01b838201526200025f565b62000170620001536200022a565b600b81526a4164766572746973696e6760a81b838201526200025f565b6b506172746e6572736869707360a01b6200018a6200022a565b91600c83528201526200025f565b604051611d239081620004ab8239f35b60405162461bcd60e51b815260048101869052600d60248201526c24b73b30b634b21037bbb732b960991b6044820152606490fd5b62461bcd60e51b815260048101869052600d60248201526c24b73b30b634b2103a37b5b2b760991b6044820152606490fd5b600080fd5b634e487b7160e01b600052604160045260246000fd5b60408051919082016001600160401b038111838210176200021457604052565b51906001600160a01b03821682036200020f57565b6006549060001990818314620004945760018381016006556040805193909291906001600160401b039060608601828111878210176200021457855283865260209586810193600094858152878301948286528a875260058a528887209351948551918211620004805784548481811c9116801562000475575b8c8210146200046157601f811162000416575b508a95601f8311600114620003a4576002968992918462000398575b505082851b9260031b1c19161783555b5190820155019051151560ff801983541691161790558251938085528251928382870152825b848110620003845750505092817f7cd4e10044453e48496150ba3c06b1b822626b4bf7fb9916aca1f15d3a0b51db948483959484010152601f80199101168101030190a2565b81810183015187820187015282016200033e565b01519150388062000308565b9192939495601f19841692878a528c8a20938d8b905b828210620004005750509185939188979660029a99969410620003e7575b50505050811b01835562000318565b01519060f88460031b161c1916905538808080620003d8565b8385015187559589019593840193018e620003ba565b8589528b8920601f840160051c8101918d851062000456575b601f0160051c019085905b8281106200044a575050620002ec565b8a81550185906200043a565b90915081906200042f565b634e487b7160e01b89526022600452602489fd5b90607f1690620002d9565b634e487b7160e01b88526041600452602488fd5b634e487b7160e01b600052601160045260246000fdfe608060408181526004918236101561007d575b509050361561002057600080fd5b3461002757005b7f260112779147faadda998a86d390693b98cd3e17626b4bda74bd9574145faa4f6020600092838052600582526001818520016100653482546119b7565b9055610073346012546119b7565b60125551348152a2005b60009060e08235811c91826308c9d1e41461179e575081630c56ae3b146117755781630f6ca1a814611712578163105ae612146115eb578163117dcdee146115c2578163147a7a5b146113ca5781631c3b2d52146113995781631cb536ed146110005781631cde011b14610f225781632b27ecc614610f035781634487d3df14610e8957816348f0601014610e6a57816353bddf7014610e4b5781635c3acb9f14610e2c5781637001f4bb14610e0f578163715018a614610db257816372fa39d114610ab157508063795be4b914610a925780637dadef8014610a73578063873f6f9e14610a2c578063880d4f1914610a0d5780638da5cb5b146109e45780638ed0eabd1461090a578063926061f0146108eb578063a99bc409146108a2578063aecd71a914610883578063badfd3a714610788578063bb8b2b47146106d7578063c23a28c314610695578063c59d484714610663578063d13c8f6e146105dc578063d400554014610356578063dbd8c05714610337578063efca2eed14610314578063f2fde38b146102445763fca7095c0361001257346102415781600319360112610241575061023a6020926102336117de565b9035611a27565b9051908152f35b80fd5b5091346103105760203660031901126103105761025f6117c3565b90610268611c3f565b6001600160a01b039182169283156102be575050600154826bffffffffffffffffffffffff60a01b821617600155167f8be0079c531659141344cd1fd0a4f28419497f9722a3daafe3b4186f6b6457e08380a380f35b906020608492519162461bcd60e51b8352820152602660248201527f4f776e61626c653a206e6577206f776e657220697320746865207a65726f206160448201526564647265737360d01b6064820152fd5b8280fd5b5090346103335781600319360112610333576020906013549051908152f35b5080fd5b5090346103335781600319360112610333576020906012549051908152f35b50919034610310576020806003193601126105d85782359167ffffffffffffffff938484116105d457366023850112156105d45785848201358681116103335736602482880101116103335784906103b960018060a01b036003541633146118f9565b8060246103c582611939565b986103d288519a8b611897565b828a52018389013786010152600654946103eb86611955565b60065582519160608301838110838211176105c157845285835284830188815284840192600192838552898b5260058852868b2095519081519283116105ae5750610436865461180e565b601f8111610568575b5087908b601f84116001146104d85793836002947f7cd4e10044453e48496150ba3c06b1b822626b4bf7fb9916aca1f15d3a0b51db9c9b9a98946104b898946104c79b98926104cd575b5050600019600383901b1c191690831b1785555b519084015551151591019060ff801983541691151516179055565b519282849384528301906118b9565b0390a280f35b015190503880610489565b50868c52888c209190601f1984168d5b818110610553575095847f7cd4e10044453e48496150ba3c06b1b822626b4bf7fb9916aca1f15d3a0b51db9c9b9a989482946104c79b98946002986104b89b1061053a575b505050811b01855561049d565b015160001960f88460031b161c1916905538808061052d565b82840151855593870193928b01928b016104e8565b868c52888c20601f840160051c8101918a85106105a4575b601f0160051c019085905b82811061059957505061043f565b8d815501859061058b565b9091508190610580565b634e487b7160e01b8c526041905260248bfd5b634e487b7160e01b895260418252602489fd5b8580fd5b8380fd5b5091346103105760203660031901126103105760207f5c774788f2a245364775c89a5d19146ce644aae7f76505df5d342778a25d899791359261062a60018060a01b036003541633146118f9565b610637600654851061197a565b83855260058252808520600201805460ff808216151660ff19909116811790915590519015158152a280f35b503461024157806003193601126102415750601254601354600b54925191825260208201526040810191909152606090f35b50913461031057816003193601126103105760209282916106b46117de565b90358252600985528282206001600160a01b039091168252845220549051908152f35b50919034610310576020366003190112610310578060a0936106f76117c3565b81608084516107058161187b565b82815282602082015282868201528260608201520152600180871b03168152600a602052208151916107368361187b565b8154938484526001830154602085019081526080600285015492848701938452600386015495606088019687520154950194855282519586525160208601525190840152516060830152516080820152f35b509190602090816003193601126105d8578235926107a9600654851061197a565b341561084f578385526005835260ff60028387200154161561081a5750907f260112779147faadda998a86d390693b98cd3e17626b4bda74bd9574145faa4f91838552600582526001818620016108013482546119b7565b905561080f346012546119b7565b60125551348152a280f35b82606492519162461bcd60e51b83528201526011602482015270536f75726365206e6f742061637469766560781b6044820152fd5b82606492519162461bcd60e51b8352820152601060248201526f04d75737420636f6c6c656374203e20360841b6044820152fd5b509034610333578160031936011261033357602090600d549051908152f35b508234610333576020366003190112610333576108bd6117c3565b6003546001600160a01b0391906108d790831633146118f9565b82546001600160a01b031916911617905580f35b5090346103335781600319360112610333576020906006549051908152f35b5082346103335761091a366117f4565b909261093160018060a01b036003541633146118f9565b6127106109478361094287876119b7565b6119b7565b036109a1575061099b907f309a0c4067b8d1d08298519982cba6674df54ebb2f55d02a84e5fc26c510be47949583600c5584600d5581600e5551938493846040919493926060820195825260208201520152565b0390a180f35b606490602087519162461bcd60e51b8352820152601960248201527f57656967687473206d7573742073756d20746f203130303030000000000000006044820152fd5b50903461033357816003193601126103335760015490516001600160a01b039091168152602090f35b509034610333578160031936011261033357602090600c549051908152f35b5091346103105781600319360112610310578160209360ff92610a4d6117de565b90358252600886528282206001600160a01b039091168252855220549151911615158152f35b509034610333578160031936011261033357602090600e549051908152f35b509034610333578160031936011261033357602090600b549051908152f35b9050833461031057602091826003193601126105d857813592610ad2611c97565b6003546001600160a01b039390610aec90851633146118f9565b8415610d7c57844710610d44576127109182610b0a600c54886119c4565b04948284610b1a600d548a6119c4565b0494610b28600e548a6119c4565b04958383600254168c51938480926318160ddd60e01b82525afa918215610d3a578a92610d07575b508115610cd2578a8695949392888b99988b8e95600b549e8f96610b7388611955565b600b55805198610b828a611848565b888a528b8a01928352818a019342855260608b0195865260808b0196875260a08b0197885260c08b019889528a019860018a52815260078c52209751885551600188015551600287015551600386015551878501555160058401555160068301555115159060070190610c00919060ff801983541691151516179055565b84151580610cc6575b610c65575b50505090610c5b917f764e98ff8f133fd79086bf24b413507d9b7e83977b31f35a16b80680f38f707295969751948594859094939260609260808301968352602083015260408201520152565b0390a26001815580f35b8880808781948754165af1610c786119f7565b5015610c845780610c0e565b885162461bcd60e51b815291820152601c60248201527f5374616b696e6720706f6f6c207472616e73666572206661696c656400000000604482015260649150fd5b50808354161515610c09565b8a5162461bcd60e51b8152808601859052600f60248201526e4e6f20746f6b656e20737570706c7960881b6044820152606490fd5b9091508381813d8311610d33575b610d1f8183611897565b81010312610d2f5751908b610b50565b8980fd5b503d610d15565b8b513d8c823e3d90fd5b60649187519162461bcd60e51b83528201526014602482015273496e73756666696369656e742062616c616e636560601b6044820152fd5b60649187519162461bcd60e51b835282015260126024820152710416d6f756e74206d757374206265203e20360741b6044820152fd5b8234610241578060031936011261024157610dcb611c3f565b600180546001600160a01b0319811690915581906001600160a01b03167f8be0079c531659141344cd1fd0a4f28419497f9722a3daafe3b4186f6b6457e08280a380f35b828434610333578160031936011261033357602090516127108152f35b8284346103335781600319360112610333576020906011549051908152f35b8284346103335781600319360112610333576020906014549051908152f35b828434610333578160031936011261033357602090600f549051908152f35b91939050346105d85760203660031901126105d8578261010094823581526007602052208054936001820154926002830154906003840154908401549160058501549360ff6007600688015497015416968151998a5260208a01528801526060870152608086015260a085015260c0840152151590820152f35b8284346103335781600319360112610333576020906010549051908152f35b5050913461031057602090816003193601126105d857358352600581528183209180519284815490610f538261180e565b908187526001928381169081600014610fe25750600114610fae575b5050600260ff91610f8587610fa0990388611897565b830154920154169082519586956060875260608701906118b9565b938501521515908301520390f35b9096508281528481205b878210610fcf5750850184019550600260ff610f6f565b8054878301870152908501908201610fb8565b60ff1916888801525050151560051b850184019550600260ff610f6f565b90508383346105d8576020908160031936011261139557823592611022611c97565b600b5484101561135d5783865260088352818620338752835260ff828720541661132a578386526007835281862082519061105c82611848565b8054825260018101548583015260028101548483015260038101549660608301978852838201549260808101938452600583015460a082015260ff600760068501549460c08401958652015416159182159101526112e75760025484516370a0823160e01b81523385820152899890918790839060249082906001600160a01b03165afa9182156112dd578a926112ae575b50811515806112a4575b61127f575b505050608090338852600a85528388208385519161111a8361187b565b8054835260018101548884015260028101548784015260038101546060840152015492839101528161125c575b5050841561122557838652600883528186203387528352818620600160ff19825416179055611178856013546119b7565b60135583865260088352818620338752835260ff828720541615611212575b8580808088335af16111a76119f7565b50156111df5750907fb9e8470097faa00e83252475f2ee4b69007b0bb2405268ebec248676998a21b391519384523393a36001815580f35b82606492519162461bcd60e51b8352820152600f60248201526e151c985b9cd9995c8819985a5b1959608a1b6044820152fd5b61121d601454611955565b601455611197565b82606492519162461bcd60e51b835282015260136024820152724e6f20726576656e756520746f20636c61696d60681b6044820152fd5b611270611277939792620f424092516119c4565b04906119b7565b938680611147565b608093985061129b929161129391516119c4565b9051906119d7565b959088806110fd565b50825115156110f8565b9091508681813d83116112d6575b6112c68183611897565b81010312610d2f5751908a6110ee565b503d6112bc565b86513d8c823e3d90fd5b835162461bcd60e51b8152808401869052601a60248201527f446973747269627574696f6e206e6f742066696e616c697a65640000000000006044820152606490fd5b82606492519162461bcd60e51b8352820152600f60248201526e105b1c9958591e4818db185a5b5959608a1b6044820152fd5b82606492519162461bcd60e51b8352820152601460248201527324b73b30b634b2103234b9ba3934b13aba34b7b760611b6044820152fd5b8480fd5b8234610241576113a8366117f4565b916113be60018060a01b036003541633146118f9565b600f5560105560115580f35b849150346103105783600319360112610310578135916113ec602435846119b7565b90600b548083116115ba575b508382039182116115a75761140f82959395611bfd565b9361141c87519586611897565b828552601f1961142b84611bfd565b01845b81811061155d575050835b8381106114c85750505050835192602080850191818652845180935281878701950193905b83821061146b5786860387f35b84518051875280840151878501528881015189880152606080820151908801526080808201519088015260a0808201519088015260c08082015190880152810151151586820152610100909501949382019360019091019061145e565b806114d961155592849997996119b7565b8852600760ff6020918083528b8b208c51936114f485611848565b8154855260018201549085015260028101548d85015260038101546060850152878101546080850152600581015460a0850152600681015460c08501520154161515878201526115448289611c15565b5261154f8188611c15565b50611955565b959395611439565b602090899896985161156e81611848565b898152828a818301528a8c8301528a60608301528a60808301528a60a08301528a60c08301528a89830152828a0101520196949661142e565b634e487b7160e01b855260119052602484fd5b9150866113f8565b82843461033357816003193601126103335760025490516001600160a01b039091168152602090f35b50509034610333576080366003190112610333576116076117c3565b6003546044359160243591606435916001600160a01b0391821633148015611705575b156116d157917f9d3dc370854f64bf276df1f38a76230098d54058a8aa4ad8c8abdf9efdb0b19c959697916104c7931696878952600a6020528089208581558660018201558260028201554260038201556116ab61169f61168d600f54896119c4565b6116996010548b6119c4565b906119b7565b611699601154866119c4565b938491015551948594859094939260609260808301968352602083015260408201520152565b855162461bcd60e51b81526020818a0152600e60248201526d139bdd08185d5d1a1bdc9a5e995960921b6044820152606490fd5b508160015416331461162a565b828585346103105760203660031901126103105760a09281906001600160a01b0361173b6117c3565b168152600a602052208054926001820154926002830154916003840154930154938151958652602086015284015260608301526080820152f35b505091346103105782600319360112610310575490516001600160a01b03909116815260209150f35b8390346103335781600319360112610333576003546001600160a01b03168152602090f35b600435906001600160a01b03821682036117d957565b600080fd5b602435906001600160a01b03821682036117d957565b60609060031901126117d957600435906024359060443590565b90600182811c9216801561183e575b602083101461182857565b634e487b7160e01b600052602260045260246000fd5b91607f169161181d565b610100810190811067ffffffffffffffff82111761186557604052565b634e487b7160e01b600052604160045260246000fd5b60a0810190811067ffffffffffffffff82111761186557604052565b90601f8019910116810190811067ffffffffffffffff82111761186557604052565b919082519283825260005b8481106118e5575050826000602080949584010152601f8019910116010190565b6020818301810151848301820152016118c4565b1561190057565b60405162461bcd60e51b815260206004820152601160248201527027b7363c9031b4b931b6329037bbb732b960791b6044820152606490fd5b67ffffffffffffffff811161186557601f01601f191660200190565b60001981146119645760010190565b634e487b7160e01b600052601160045260246000fd5b1561198157565b60405162461bcd60e51b815260206004820152600e60248201526d496e76616c696420736f7572636560901b6044820152606490fd5b9190820180921161196457565b8181029291811591840414171561196457565b81156119e1570490565b634e487b7160e01b600052601260045260246000fd5b3d15611a22573d90611a0882611939565b91611a166040519384611897565b82523d6000602084013e565b606090565b90600b54821015611bf65760008281526008602090815260408083206001600160a01b0394851680855290835281842054919590939160ff16611bed5781526007825284812092855193611a7a85611848565b8054855260018101548486015260028101548786015260038101546060860190815260048201549560808101968752600583015460a082015260ff600760068501549460c08401958652015416159060e08215910152611be257602490858598600254168a51938480926370a0823160e01b82528860048301525afa918215611bd8578592611ba9575b5081151580611b9f575b611b7a575b5050509480826080969760049452600a85522090805193611b338561187b565b82548552600183015490850152600282015490840152600381015460608401520154928391015281611b6457505090565b611270611b779392620f424092516119c4565b90565b608097508893989261129360049693611b9393516119c4565b96819450979297611b13565b5082511515611b0e565b9091508581813d8311611bd1575b611bc18183611897565b8101031261139557519038611b04565b503d611bb7565b89513d87823e3d90fd5b505050935050505090565b50935050505090565b5050600090565b67ffffffffffffffff81116118655760051b60200190565b8051821015611c295760209160051b010190565b634e487b7160e01b600052603260045260246000fd5b6001546001600160a01b03163303611c5357565b606460405162461bcd60e51b815260206004820152602060248201527f4f776e61626c653a2063616c6c6572206973206e6f7420746865206f776e65726044820152fd5b600260005414611ca8576002600055565b60405162461bcd60e51b815260206004820152601f60248201527f5265656e7472616e637947756172643a207265656e7472616e742063616c6c006044820152606490fdfea264697066735822122041b406dda60bbbe177399757a2285599000fa5d83519f14e1f11012945c6605e64736f6c63430008140033","linkReferences":{}},"methodIdentifiers":{"WEIGHT_PRECISION()":"7001f4bb","addRevenueSource(string)":"d4005540","circleOwner()":"08c9d1e4","circleToken()":"117dcdee","claimRevenue(uint256)":"1cb536ed","collectRevenue(uint256)":"badfd3a7","commentWeight()":"2b27ecc6","contributorsWeight()":"aecd71a9","createDistribution(uint256)":"72fa39d1","distributions(uint256)":"4487d3df","getClaimableRevenue(uint256,address)":"fca7095c","getDistributions(uint256,uint256)":"147a7a5b","getStats()":"c59d4847","getUserContribution(address)":"bb8b2b47","hasClaimed(uint256,address)":"873f6f9e","inviteWeight()":"5c3acb9f","nextDistributionId()":"795be4b9","nextSourceId()":"926061f0","owner()":"8da5cb5b","postWeight()":"48f06010","renounceOwnership()":"715018a6","revenueSources(uint256)":"1cde011b","stakingPool()":"0c56ae3b","stakingPoolWeight()":"7dadef80","toggleRevenueSource(uint256)":"d13c8f6e","tokenBalanceSnapshots(uint256,address)":"c23a28c3","tokenHoldersWeight()":"880d4f19","totalDistributed()":"efca2eed","totalRevenueCollected()":"dbd8c057","totalUniqueClaims()":"53bddf70","transferOwnership(address)":"f2fde38b","updateContribution(address,uint256,uint256,uint256)":"105ae612","updateContributionWeights(uint256,uint256,uint256)":"1c3b2d52","updateStakingPool(address)":"a99bc409","updateWeights(uint256,uint256,uint256)":"8ed0eabd","userContributions(address)":"0f6ca1a8"},"id":3}