{"abi":[{"type":"constructor","inputs":[{"name":"_circleToken","type":"address","internalType":"address"},{"name":"_circleOwner","type":"address","internalType":"address"},{"name":"_baseAPY","type":"uint256","internalType":"uint256"}],"stateMutability":"nonpayable"},{"type":"receive","stateMutability":"payable"},{"type":"function","name":"DAYS_PER_YEAR","inputs":[],"outputs":[{"name":"","type":"uint256","internalType":"uint256"}],"stateMutability":"view"},{"type":"function","name":"MULTIPLIER_PRECISION","inputs":[],"outputs":[{"name":"","type":"uint256","internalType":"uint256"}],"stateMutability":"view"},{"type":"function","name":"SECONDS_PER_DAY","inputs":[],"outputs":[{"name":"","type":"uint256","internalType":"uint256"}],"stateMutability":"view"},{"type":"function","name":"baseAPY","inputs":[],"outputs":[{"name":"","type":"uint256","internalType":"uint256"}],"stateMutability":"view"},{"type":"function","name":"calculatePendingReward","inputs":[{"name":"user","type":"address","internalType":"address"},{"name":"positionId","type":"uint256","internalType":"uint256"}],"outputs":[{"name":"","type":"uint256","internalType":"uint256"}],"stateMutability":"view"},{"type":"function","name":"circleOwner","inputs":[],"outputs":[{"name":"","type":"address","internalType":"address"}],"stateMutability":"view"},{"type":"function","name":"circleToken","inputs":[],"outputs":[{"name":"","type":"address","internalType":"address"}],"stateMutability":"view"},{"type":"function","name":"claimRewards","inputs":[{"name":"positionId","type":"uint256","internalType":"uint256"}],"outputs":[],"stateMutability":"nonpayable"},{"type":"function","name":"depositRewards","inputs":[],"outputs":[],"stateMutability":"payable"},{"type":"function","name":"getPoolStats","inputs":[],"outputs":[{"name":"totalStaked_","type":"uint256","internalType":"uint256"},{"name":"totalStakers_","type":"uint256","internalType":"uint256"},{"name":"rewardPool_","type":"uint256","internalType":"uint256"},{"name":"baseAPY_","type":"uint256","internalType":"uint256"}],"stateMutability":"view"},{"type":"function","name":"getUserStakes","inputs":[{"name":"user","type":"address","internalType":"address"}],"outputs":[{"name":"","type":"tuple[]","internalType":"struct StakingPool.StakePosition[]","components":[{"name":"amount","type":"uint256","internalType":"uint256"},{"name":"stakedAt","type":"uint256","internalType":"uint256"},{"name":"unlockAt","type":"uint256","internalType":"uint256"},{"name":"lockPeriodDays","type":"uint256","internalType":"uint256"},{"name":"apyMultiplier","type":"uint256","internalType":"uint256"},{"name":"accruedRewards","type":"uint256","internalType":"uint256"},{"name":"lastRewardClaim","type":"uint256","internalType":"uint256"}]}],"stateMutability":"view"},{"type":"function","name":"getUserTotalRewards","inputs":[{"name":"user","type":"address","internalType":"address"}],"outputs":[{"name":"","type":"uint256","internalType":"uint256"}],"stateMutability":"view"},{"type":"function","name":"hasStaked","inputs":[{"name":"","type":"address","internalType":"address"}],"outputs":[{"name":"","type":"bool","internalType":"bool"}],"stateMutability":"view"},{"type":"function","name":"lockPeriodMultipliers","inputs":[{"name":"","type":"uint256","internalType":"uint256"}],"outputs":[{"name":"","type":"uint256","internalType":"uint256"}],"stateMutability":"view"},{"type":"function","name":"owner","inputs":[],"outputs":[{"name":"","type":"address","internalType":"address"}],"stateMutability":"view"},{"type":"function","name":"pause","inputs":[],"outputs":[],"stateMutability":"nonpayable"},{"type":"function","name":"paused","inputs":[],"outputs":[{"name":"","type":"bool","internalType":"bool"}],"stateMutability":"view"},{"type":"function","name":"renounceOwnership","inputs":[],"outputs":[],"stateMutability":"nonpayable"},{"type":"function","name":"rewardPool","inputs":[],"outputs":[{"name":"","type":"uint256","internalType":"uint256"}],"stateMutability":"view"},{"type":"function","name":"setLockPeriodMultiplier","inputs":[{"name":"lockDays","type":"uint256","internalType":"uint256"},{"name":"multiplier","type":"uint256","internalType":"uint256"}],"outputs":[],"stateMutability":"nonpayable"},{"type":"function","name":"stake","inputs":[{"name":"amount","type":"uint256","internalType":"uint256"},{"name":"lockPeriodDays","type":"uint256","internalType":"uint256"},{"name":"contributionMultiplier","type":"uint256","internalType":"uint256"}],"outputs":[],"stateMutability":"nonpayable"},{"type":"function","name":"totalRewardsDistributed","inputs":[],"outputs":[{"name":"","type":"uint256","internalType":"uint256"}],"stateMutability":"view"},{"type":"function","name":"totalStaked","inputs":[],"outputs":[{"name":"","type":"uint256","internalType":"uint256"}],"stateMutability":"view"},{"type":"function","name":"totalStakers","inputs":[],"outputs":[{"name":"","type":"uint256","internalType":"uint256"}],"stateMutability":"view"},{"type":"function","name":"transferOwnership","inputs":[{"name":"newOwner","type":"address","internalType":"address"}],"outputs":[],"stateMutability":"nonpayable"},{"type":"function","name":"unpause","inputs":[],"outputs":[],"stateMutability":"nonpayable"},{"type":"function","name":"unstake","inputs":[{"name":"positionId","type":"uint256","internalType":"uint256"}],"outputs":[],"stateMutability":"nonpayable"},{"type":"function","name":"updateBaseAPY","inputs":[{"name":"newAPY","type":"uint256","internalType":"uint256"}],"outputs":[],"stateMutability":"nonpayable"},{"type":"function","name":"userStakes","inputs":[{"name":"","type":"address","internalType":"address"},{"name":"","type":"uint256","internalType":"uint256"}],"outputs":[{"name":"amount","type":"uint256","internalType":"uint256"},{"name":"stakedAt","type":"uint256","internalType":"uint256"},{"name":"unlockAt","type":"uint256","internalType":"uint256"},{"name":"lockPeriodDays","type":"uint256","internalType":"uint256"},{"name":"apyMultiplier","type":"uint256","internalType":"uint256"},{"name":"accruedRewards","type":"uint256","internalType":"uint256"},{"name":"lastRewardClaim","type":"uint256","internalType":"uint256"}],"stateMutability":"view"},{"type":"function","name":"userTotalStaked","inputs":[{"name":"","type":"address","internalType":"address"}],"outputs":[{"name":"","type":"uint256","internalType":"uint256"}],"stateMutability":"view"},{"type":"event","name":"APYUpdated","inputs":[{"name":"newAPY","type":"uint256","indexed":false,"internalType":"uint256"}],"anonymous":false},{"type":"event","name":"LockPeriodMultiplierSet","inputs":[{"name":"lockDays","type":"uint256","indexed":false,"internalType":"uint256"},{"name":"multiplier","type":"uint256","indexed":false,"internalType":"uint256"}],"anonymous":false},{"type":"event","name":"OwnershipTransferred","inputs":[{"name":"previousOwner","type":"address","indexed":true,"internalType":"address"},{"name":"newOwner","type":"address","indexed":true,"internalType":"address"}],"anonymous":false},{"type":"event","name":"Paused","inputs":[{"name":"account","type":"address","indexed":false,"internalType":"address"}],"anonymous":false},{"type":"event","name":"RewardsClaimed","inputs":[{"name":"user","type":"address","indexed":true,"internalType":"address"},{"name":"positionId","type":"uint256","indexed":true,"internalType":"uint256"},{"name":"reward","type":"uint256","indexed":false,"internalType":"uint256"}],"anonymous":false},{"type":"event","name":"RewardsDeposited","inputs":[{"name":"amount","type":"uint256","indexed":false,"internalType":"uint256"}],"anonymous":false},{"type":"event","name":"Staked","inputs":[{"name":"user","type":"address","indexed":true,"internalType":"address"},{"name":"positionId","type":"uint256","indexed":true,"internalType":"uint256"},{"name":"amount","type":"uint256","indexed":false,"internalType":"uint256"},{"name":"lockPeriodDays","type":"uint256","indexed":false,"internalType":"uint256"},{"name":"apyMultiplier","type":"uint256","indexed":false,"internalType":"uint256"}],"anonymous":false},{"type":"event","name":"Unpaused","inputs":[{"name":"account","type":"address","indexed":false,"internalType":"address"}],"anonymous":false},{"type":"event","name":"Unstaked","inputs":[{"name":"user","type":"address","indexed":true,"internalType":"address"},{"name":"positionId","type":"uint256","indexed":true,"internalType":"uint256"},{"name":"amount","type":"uint256","indexed":false,"internalType":"uint256"},{"name":"reward","type":"uint256","indexed":false,"internalType":"uint256"}],"anonymous":false}],"bytecode":{"object":"0x608034620001e157601f620018f438819003918201601f191683019291906001600160401b03841183851017620001e6578160609284926040968752833981010312620001e1576200005181620001fc565b90826200006160208301620001fc565b91015190600092600184556001549185519260018060a01b03928391338382167f8be0079c531659141344cd1fd0a4f28419497f9722a3daafe3b4186f6b6457e08a80a36001600160a81b0319163360ff60a01b19161760015516928315620001af5750169081156200017b57821515806200016e575b156200013c5791614e209391859360018060a01b031990816002541617600255600354161760035560045580805260076020526127108282205560078152612ee082822055601e8152613a9882822055605a81522055516116e29081620002128239f35b845162461bcd60e51b815260206004820152600b60248201526a496e76616c69642041505960a81b6044820152606490fd5b50612710831115620000d8565b845162461bcd60e51b815260206004820152600d60248201526c24b73b30b634b21037bbb732b960991b6044820152606490fd5b62461bcd60e51b815260206004820152600d60248201526c24b73b30b634b2103a37b5b2b760991b6044820152606490fd5b600080fd5b634e487b7160e01b600052604160045260246000fd5b51906001600160a01b0382168203620001e15756fe604060808152600480361015610056575b50361561001c57600080fd5b60207f4e9221f2cca6ca0397acc6004ea0b716798254f5abcf53924fab34f0373e5d4e9161004c34600654611397565b60065551348152a1005b9060009160e08335811c90816306947c541461128457816308c9d1e41461125a5781630962ef79146110c3578163117dcdee14611099578163152111f714611015578163214405a914610ff75781632e17de7814610d9c5781633f4ba83a14610d005781635c975abb14610cd857816366666aa914610cb8578163666c4b5c14610bc3578163715018a614610b66578163719de1ef14610b2d57816371d20fe714610a8757816374f0314f14610a68578163817b1cd214610a48578163842e2981146109205781638456cb59146108be578163868ba188146107fc57816386989038146107dc5781638da5cb5b146107b2578163a638f2e21461040d578163aae38b07146103e5578163b309483a146103c7578163b5d5b5fa1461033657508063bbb85188146102fe578063c6846ef8146102e1578063c93c8f34146102a3578063ee172546146102805763f2fde38b146101b2575090610010565b3461027c57602036600319011261027c576101cb6112b5565b906101d46115b7565b6001600160a01b0391821692831561022a575050600154826bffffffffffffffffffffffff60a01b821617600155167f8be0079c531659141344cd1fd0a4f28419497f9722a3daafe3b4186f6b6457e08380a380f35b906020608492519162461bcd60e51b8352820152602660248201527f4f776e61626c653a206e6577206f776e657220697320746865207a65726f206160448201526564647265737360d01b6064820152fd5b8280fd5b50503461029f578160031936011261029f57602090600a549051908152f35b5080fd5b50503461029f57602036600319011261029f5760209160ff9082906001600160a01b036102ce6112b5565b168152600c855220541690519015158152f35b50503461029f578160031936011261029f576020905161016d8152f35b50903461027c578260031936011261027c576080925060055491600b5491600654915492815194855260208501528301526060820152f35b939050346103c457826003193601126103c4576103516112b5565b6001600160a01b031681526008602052828120805460243592908310156103c457509061037d916112d0565b508054926001820154926002830154600384015491840154926006600586015495015495815197885260208801528601526060850152608084015260a083015260c0820152f35b80fd5b5050503461029f578160031936011261029f57602090516127108152f35b50503461027c57602036600319011261027c5760209282913581526007845220549051908152f35b5050903461027c57606036600319011261027c578135906024908135604492833593610437611656565b61043f61160f565b851561077c578215808015610772575b8015610768575b801561075e575b156107275761271091828710158061071b575b156106da57908993929160018060a01b03600254168751906323b872dd60e01b8252338c83015230868301528a83830152816064816020998a945af19081156106d0578c916106a3575b50156106715750899190156106385742965b8583526007855286832054906104e19161136e565b049585519889916104f183611302565b89835285830190428252888401908152606084019088825260808501928b84528a60a087019688885260c0019742895233815260088b52209d8e549e8f680100000000000000001115610624578f61054e916001820181556112d0565b9990996106125750518855516001880155516002870155516003860155519084015551600583015551600690910155338752600c8152828720805460ff8116156105f3575b5050338752600981528287206105aa868254611397565b90556105b885600554611397565b60055582519485528401528201527f9cfd25589d1eb8ad71e342a86a8524e83522e3936c0803048c08f6d9ad974f4060603392a36001815580f35b60ff19166001179055600b54610608906113a4565b600b553880610593565b90508f8087634e487b7160e01b825252fd5b5050634e487b7160e01b8f5260418552878ffd5b90506201518084026201517f198582040161065f57906106598a9242611397565b966104cc565b634e487b7160e01b8a5260118952828afd5b896e151c985b9cd9995c8819985a5b1959608a1b606492600f87898c519562461bcd60e51b8752860152840152820152fd5b6106c39150863d88116106c9575b6106bb8183611334565b810190611356565b386104ba565b503d6106b1565b88513d8e823e3d90fd5b887f496e76616c696420636f6e747269627574696f6e206d756c7469706c69657200606492601f8760208b519562461bcd60e51b8752860152840152820152fd5b50617530871115610470565b845162461bcd60e51b81526020818a015260138185015272125b9d985b1a59081b1bd8dac81c195c9a5bd9606a1b81840152606490fd5b50605a841461045d565b50601e8414610456565b506007841461044f565b710416d6f756e74206d757374206265203e20360741b87916012606494602088519562461bcd60e51b8752860152840152820152fd5b5050503461029f578160031936011261029f5760015490516001600160a01b039091168152602090f35b5050503461029f578160031936011261029f57602090600b549051908152f35b8285853461029f578060031936011261029f5782356024359361082a60018060a01b03600354163314611577565b612710851015806108b2575b1561087a57508293817f6440b61fd836e1de1df20d588cc61e24f6225b3275f7cc37983f3806aa3a5fdd94526007602052808386205582519182526020820152a180f35b606490602084519162461bcd60e51b8352820152601260248201527124b73b30b634b21036bab63a34b83634b2b960711b6044820152fd5b50617530851115610836565b5050503461029f578160031936011261029f5760207f62e78cea01bee320cd4e420270b5ea74000d11b0c9f74754ebdbfc544b05a258916108fd6115b7565b61090561160f565b6001805460ff60a01b1916600160a01b17905551338152a180f35b939050346103c457602090816003193601126103c4576001600160a01b036109466112b5565b168152600882528381209485549367ffffffffffffffff8511610a3557508584848780519261097a838260051b0185611334565b8084528284018095885283882088915b838310610a08575050505080519482860193838752518094528186019496915b8483106109b75786860387f35b87518051875280850151878601528082015187830152606080820151908801526080808201519088015260a0808201519088015260c0908101519087015296830196948101946001909201916109aa565b600786600192610a1f859d999a9b9d9c989c611484565b815201920192019190989695949897939761098a565b634e487b7160e01b835260419052602482fd5b5050503461029f578160031936011261029f576020906005549051908152f35b5050503461029f578160031936011261029f5760209051620151808152f35b5050903461027c57602036600319011261027c57813591610ab360018060a01b03600354163314611577565b82151580610b21575b15610af15791602091817f5d96611557274413c64267972d202ca41009c399954bcb4cbab17d2a5156fbb0945551908152a180f35b6020606492519162461bcd60e51b8352820152600b60248201526a496e76616c69642041505960a81b6044820152fd5b50612710831115610abc565b5050503461029f57602036600319011261029f5760209181906001600160a01b03610b566112b5565b1681526009845220549051908152f35b84346103c457806003193601126103c457610b7f6115b7565b600180546001600160a01b0319811690915581906001600160a01b03167f8be0079c531659141344cd1fd0a4f28419497f9722a3daafe3b4186f6b6457e08280a380f35b50503461027c57602092836003193601126103c457610be06112b5565b938160018060a01b0386168152600882528481209384549067ffffffffffffffff8211610a355750855194610c1a848360051b0187611334565b81865282528282208290848088015b848410610c995750505050505b8351811015610c9057610c498185611563565b5151610c5e575b610c59906113a4565b610c36565b91610c88610c5991610c8260a0610c758789611563565b510151610c82878b6114d4565b90611397565b929050610c50565b50908351908152f35b600191600791610ca885611484565b8152019201920191908590610c29565b5050503461029f578160031936011261029f576020906006549051908152f35b5050503461029f578160031936011261029f5760209060ff60015460a01c1690519015158152f35b50503461027c578260031936011261027c57610d1a6115b7565b6001549060ff8260a01c1615610d62575060ff60a01b1916600155513381527f5db9ee0a495bf2e6ff9c91a7834c1ba4fdd244a5e8aa4e537bd38aeae4b073aa90602090a180f35b606490602084519162461bcd60e51b8352820152601460248201527314185d5cd8589b194e881b9bdd081c185d5cd95960621b6044820152fd5b5050903461027c5760209081600319360112610ff357823592610dbd611656565b33855260088352610dd28286205485106113b3565b33855260088352610de5848387206112d0565b50928354938415610fb25760028101544210610f8257610e0586336114d4565b9287610e1660058401958654611397565b9433825260098552868220610e2c8982546113f2565b9055610e3a886005546113f2565b600555818615159485610f5f575b5555600254855163a9059cbb60e01b8152338382015260248101889052908490829060449082908d906001600160a01b03165af1908115610f55578991610f38575b5015610efd57507f204fccf0d92ed8d48f204adb39b2e81e92bad0dedb93f5716ca9478cfb57de009392919080610ef1575b610ed3575b82519485528401523392a36001815580f35b610eec8780808086335af1610ee66113ff565b5061143f565b610ec1565b50816006541015610ebc565b845162461bcd60e51b81529081018390526015602482015274151bdad95b881d1c985b9cd9995c8819985a5b1959605a1b6044820152606490fd5b610f4f9150843d86116106c9576106bb8183611334565b38610e8a565b86513d8b823e3d90fd5b610f6b886006546113f2565b600655610f7a88600a54611397565b600a55610e48565b50606492519162461bcd60e51b8352820152600c60248201526b14dd1a5b1b081b1bd8dad95960a21b6044820152fd5b50606492519162461bcd60e51b8352820152601960248201527f506f736974696f6e20616c726561647920756e7374616b6564000000000000006044820152fd5b8380fd5b50503461027c578260031936011261027c5760209250549051908152f35b50508260031936011261027c573415611064575060207f4e9221f2cca6ca0397acc6004ea0b716798254f5abcf53924fab34f0373e5d4e9161105934600654611397565b60065551348152a180f35b6020606492519162461bcd60e51b8352820152601060248201526f04d757374206465706f736974203e20360841b6044820152fd5b5050503461029f578160031936011261029f5760025490516001600160a01b039091168152602090f35b50503461027c57602080600319360112610ff3578135926110e2611656565b338552600882526110f78186205485106113b3565b3385526008825261110a848287206112d0565b508054156112245761111c85336114d4565b61112b60058301918254611397565b9485156111eb5785600654106111a8575090867fdacbdde355ba930696a362ea6738feb9f8bd52dfb3d81947558fd3217e23e32594939255600642910155611175846006546113f2565b60065561118484600a54611397565b600a5561119a8680808088335af1610ee66113ff565b519283523392a36001815580f35b835162461bcd60e51b8152908101859052601860248201527f496e73756666696369656e742072657761726420706f6f6c00000000000000006044820152606490fd5b835162461bcd60e51b815290810185905260136024820152724e6f207265776172647320746f20636c61696d60681b6044820152606490fd5b505162461bcd60e51b8152918201526011602482015270141bdcda5d1a5bdb881d5b9cdd185ad959607a1b604482015260649150fd5b5050503461029f578160031936011261029f5760035490516001600160a01b039091168152602090f35b5050503461029f578060031936011261029f576020906112ae6112a56112b5565b602435906114d4565b9051908152f35b600435906001600160a01b03821682036112cb57565b600080fd5b80548210156112ec576000526007602060002091020190600090565b634e487b7160e01b600052603260045260246000fd5b60e0810190811067ffffffffffffffff82111761131e57604052565b634e487b7160e01b600052604160045260246000fd5b90601f8019910116810190811067ffffffffffffffff82111761131e57604052565b908160209103126112cb575180151581036112cb5790565b8181029291811591840414171561138157565b634e487b7160e01b600052601160045260246000fd5b9190820180921161138157565b60001981146113815760010190565b156113ba57565b60405162461bcd60e51b815260206004820152601060248201526f24b73b30b634b2103837b9b4ba34b7b760811b6044820152606490fd5b9190820391821161138157565b3d1561143a573d9067ffffffffffffffff821161131e576040519161142e601f8201601f191660200184611334565b82523d6000602084013e565b606090565b1561144657565b60405162461bcd60e51b815260206004820152601660248201527514995dd85c99081d1c985b9cd9995c8819985a5b195960521b6044820152606490fd5b9060405161149181611302565b60c0600682948054845260018101546020850152600281015460408501526003810154606085015260048101546080850152600581015460a08501520154910152565b6001600160a01b0316600090815260086020526040902080548210156115565761150791611501916112d0565b50611484565b80511561155d5761151c60c0820151426113f2565b9081156115565764496cebb8009161154d6115529261271061154560045460808401519061136e565b04905161136e565b61136e565b0490565b5050600090565b50600090565b80518210156112ec5760209160051b010190565b1561157e57565b60405162461bcd60e51b815260206004820152601160248201527027b7363c9031b4b931b6329037bbb732b960791b6044820152606490fd5b6001546001600160a01b031633036115cb57565b606460405162461bcd60e51b815260206004820152602060248201527f4f776e61626c653a2063616c6c6572206973206e6f7420746865206f776e65726044820152fd5b60ff60015460a01c1661161e57565b60405162461bcd60e51b815260206004820152601060248201526f14185d5cd8589b194e881c185d5cd95960821b6044820152606490fd5b600260005414611667576002600055565b60405162461bcd60e51b815260206004820152601f60248201527f5265656e7472616e637947756172643a207265656e7472616e742063616c6c006044820152606490fdfea26469706673582212207fd4a22d9ebc12fbc58e8adf0a117626c3a9467a5c7b1631a99951af2e8b0a0e64736f6c63430008140033","linkReferences":{}},"methodIdentifiers":{"DAYS_PER_YEAR()":"c6846ef8","MULTIPLIER_PRECISION()":"b309483a","SECONDS_PER_DAY()":"74f0314f","baseAPY()":"214405a9","calculatePendingReward(address,uint256)":"06947c54","circleOwner()":"08c9d1e4","circleToken()":"117dcdee","claimRewards(uint256)":"0962ef79","depositRewards()":"152111f7","getPoolStats()":"bbb85188","getUserStakes(address)":"842e2981","getUserTotalRewards(address)":"666c4b5c","hasStaked(address)":"c93c8f34","lockPeriodMultipliers(uint256)":"aae38b07","owner()":"8da5cb5b","pause()":"8456cb59","paused()":"5c975abb","renounceOwnership()":"715018a6","rewardPool()":"66666aa9","setLockPeriodMultiplier(uint256,uint256)":"868ba188","stake(uint256,uint256,uint256)":"a638f2e2","totalRewardsDistributed()":"ee172546","totalStaked()":"817b1cd2","totalStakers()":"86989038","transferOwnership(address)":"f2fde38b","unpause()":"3f4ba83a","unstake(uint256)":"2e17de78","updateBaseAPY(uint256)":"71d20fe7","userStakes(address,uint256)":"b5d5b5fa","userTotalStaked(address)":"719de1ef"},"id":5}