{"abi":[{"type":"constructor","inputs":[{"name":"_circleToken","type":"address","internalType":"address"},{"name":"_circleOwner","type":"address","internalType":"address"},{"name":"_treasury","type":"address","internalType":"address"}],"stateMutability":"nonpayable"},{"type":"receive","stateMutability":"payable"},{"type":"function","name":"PERCENTAGE_PRECISION","inputs":[],"outputs":[{"name":"","type":"uint256","internalType":"uint256"}],"stateMutability":"view"},{"type":"function","name":"cancel","inputs":[{"name":"proposalId","type":"uint256","internalType":"uint256"}],"outputs":[],"stateMutability":"nonpayable"},{"type":"function","name":"castVote","inputs":[{"name":"proposalId","type":"uint256","internalType":"uint256"},{"name":"voteType","type":"uint8","internalType":"enum CircleGovernor.VoteType"}],"outputs":[],"stateMutability":"nonpayable"},{"type":"function","name":"circleOwner","inputs":[],"outputs":[{"name":"","type":"address","internalType":"address"}],"stateMutability":"view"},{"type":"function","name":"circleToken","inputs":[],"outputs":[{"name":"","type":"address","internalType":"address"}],"stateMutability":"view"},{"type":"function","name":"execute","inputs":[{"name":"proposalId","type":"uint256","internalType":"uint256"}],"outputs":[],"stateMutability":"payable"},{"type":"function","name":"executionDelay","inputs":[],"outputs":[{"name":"","type":"uint256","internalType":"uint256"}],"stateMutability":"view"},{"type":"function","name":"getGovernanceStats","inputs":[],"outputs":[{"name":"totalProposals","type":"uint256","internalType":"uint256"},{"name":"executedProposals","type":"uint256","internalType":"uint256"},{"name":"totalVotesCast","type":"uint256","internalType":"uint256"}],"stateMutability":"view"},{"type":"function","name":"getProposal","inputs":[{"name":"proposalId","type":"uint256","internalType":"uint256"}],"outputs":[{"name":"proposer","type":"address","internalType":"address"},{"name":"title","type":"string","internalType":"string"},{"name":"description","type":"string","internalType":"string"},{"name":"forVotes","type":"uint256","internalType":"uint256"},{"name":"againstVotes","type":"uint256","internalType":"uint256"},{"name":"abstainVotes","type":"uint256","internalType":"uint256"},{"name":"votingStarts","type":"uint256","internalType":"uint256"},{"name":"votingEnds","type":"uint256","internalType":"uint256"},{"name":"currentState","type":"uint8","internalType":"enum CircleGovernor.ProposalState"}],"stateMutability":"view"},{"type":"function","name":"getProposalActions","inputs":[{"name":"proposalId","type":"uint256","internalType":"uint256"}],"outputs":[{"name":"targets","type":"address[]","internalType":"address[]"},{"name":"values","type":"uint256[]","internalType":"uint256[]"},{"name":"calldatas","type":"bytes[]","internalType":"bytes[]"}],"stateMutability":"view"},{"type":"function","name":"getVote","inputs":[{"name":"proposalId","type":"uint256","internalType":"uint256"},{"name":"voter","type":"address","internalType":"address"}],"outputs":[{"name":"","type":"uint8","internalType":"enum CircleGovernor.VoteType"}],"stateMutability":"view"},{"type":"function","name":"hasVoted","inputs":[{"name":"proposalId","type":"uint256","internalType":"uint256"},{"name":"voter","type":"address","internalType":"address"}],"outputs":[{"name":"","type":"bool","internalType":"bool"}],"stateMutability":"view"},{"type":"function","name":"latestProposalIds","inputs":[{"name":"","type":"address","internalType":"address"}],"outputs":[{"name":"","type":"uint256","internalType":"uint256"}],"stateMutability":"view"},{"type":"function","name":"proposalCount","inputs":[],"outputs":[{"name":"","type":"uint256","internalType":"uint256"}],"stateMutability":"view"},{"type":"function","name":"proposalThreshold","inputs":[],"outputs":[{"name":"","type":"uint256","internalType":"uint256"}],"stateMutability":"view"},{"type":"function","name":"proposals","inputs":[{"name":"","type":"uint256","internalType":"uint256"}],"outputs":[{"name":"proposalId","type":"uint256","internalType":"uint256"},{"name":"proposer","type":"address","internalType":"address"},{"name":"title","type":"string","internalType":"string"},{"name":"description","type":"string","internalType":"string"},{"name":"createdAt","type":"uint256","internalType":"uint256"},{"name":"votingStarts","type":"uint256","internalType":"uint256"},{"name":"votingEnds","type":"uint256","internalType":"uint256"},{"name":"executionDelay","type":"uint256","internalType":"uint256"},{"name":"executeAfter","type":"uint256","internalType":"uint256"},{"name":"forVotes","type":"uint256","internalType":"uint256"},{"name":"againstVotes","type":"uint256","internalType":"uint256"},{"name":"abstainVotes","type":"uint256","internalType":"uint256"},{"name":"state","type":"uint8","internalType":"enum CircleGovernor.ProposalState"},{"name":"executed","type":"bool","internalType":"bool"},{"name":"requiredQuorum","type":"uint256","internalType":"uint256"}],"stateMutability":"view"},{"type":"function","name":"propose","inputs":[{"name":"title","type":"string","internalType":"string"},{"name":"description","type":"string","internalType":"string"},{"name":"targets","type":"address[]","internalType":"address[]"},{"name":"values","type":"uint256[]","internalType":"uint256[]"},{"name":"calldatas","type":"bytes[]","internalType":"bytes[]"}],"outputs":[{"name":"","type":"uint256","internalType":"uint256"}],"stateMutability":"nonpayable"},{"type":"function","name":"queue","inputs":[{"name":"proposalId","type":"uint256","internalType":"uint256"}],"outputs":[],"stateMutability":"nonpayable"},{"type":"function","name":"quorumPercentage","inputs":[],"outputs":[{"name":"","type":"uint256","internalType":"uint256"}],"stateMutability":"view"},{"type":"function","name":"state","inputs":[{"name":"proposalId","type":"uint256","internalType":"uint256"}],"outputs":[{"name":"","type":"uint8","internalType":"enum CircleGovernor.ProposalState"}],"stateMutability":"view"},{"type":"function","name":"totalProposalsCreated","inputs":[],"outputs":[{"name":"","type":"uint256","internalType":"uint256"}],"stateMutability":"view"},{"type":"function","name":"totalProposalsExecuted","inputs":[],"outputs":[{"name":"","type":"uint256","internalType":"uint256"}],"stateMutability":"view"},{"type":"function","name":"totalVotes","inputs":[],"outputs":[{"name":"","type":"uint256","internalType":"uint256"}],"stateMutability":"view"},{"type":"function","name":"treasury","inputs":[],"outputs":[{"name":"","type":"address","internalType":"address"}],"stateMutability":"view"},{"type":"function","name":"updateGovernanceParameters","inputs":[{"name":"_votingDelay","type":"uint256","internalType":"uint256"},{"name":"_votingPeriod","type":"uint256","internalType":"uint256"},{"name":"_proposalThreshold","type":"uint256","internalType":"uint256"},{"name":"_quorumPercentage","type":"uint256","internalType":"uint256"}],"outputs":[],"stateMutability":"nonpayable"},{"type":"function","name":"votingDelay","inputs":[],"outputs":[{"name":"","type":"uint256","internalType":"uint256"}],"stateMutability":"view"},{"type":"function","name":"votingPeriod","inputs":[],"outputs":[{"name":"","type":"uint256","internalType":"uint256"}],"stateMutability":"view"},{"type":"event","name":"GovernanceParametersUpdated","inputs":[{"name":"votingDelay","type":"uint256","indexed":false,"internalType":"uint256"},{"name":"votingPeriod","type":"uint256","indexed":false,"internalType":"uint256"},{"name":"proposalThreshold","type":"uint256","indexed":false,"internalType":"uint256"},{"name":"quorumPercentage","type":"uint256","indexed":false,"internalType":"uint256"}],"anonymous":false},{"type":"event","name":"ProposalCancelled","inputs":[{"name":"proposalId","type":"uint256","indexed":true,"internalType":"uint256"}],"anonymous":false},{"type":"event","name":"ProposalCreated","inputs":[{"name":"proposalId","type":"uint256","indexed":true,"internalType":"uint256"},{"name":"proposer","type":"address","indexed":true,"internalType":"address"},{"name":"title","type":"string","indexed":false,"internalType":"string"},{"name":"votingStarts","type":"uint256","indexed":false,"internalType":"uint256"},{"name":"votingEnds","type":"uint256","indexed":false,"internalType":"uint256"}],"anonymous":false},{"type":"event","name":"ProposalExecuted","inputs":[{"name":"proposalId","type":"uint256","indexed":true,"internalType":"uint256"}],"anonymous":false},{"type":"event","name":"ProposalQueued","inputs":[{"name":"proposalId","type":"uint256","indexed":true,"internalType":"uint256"},{"name":"executeAfter","type":"uint256","indexed":false,"internalType":"uint256"}],"anonymous":false},{"type":"event","name":"VoteCast","inputs":[{"name":"proposalId","type":"uint256","indexed":true,"internalType":"uint256"},{"name":"voter","type":"address","indexed":true,"internalType":"address"},{"name":"voteType","type":"uint8","indexed":false,"internalType":"enum CircleGovernor.VoteType"},{"name":"weight","type":"uint256","indexed":false,"internalType":"uint256"}],"anonymous":false}],"bytecode":{"object":"0x6080346200019157601f620020fb38819003918201601f191683019291906001600160401b038411838510176200019657816060928492604096875283398101031262000191576200005181620001ac565b906200006d836200006560208401620001ac565b9201620001ac565b60016000556201518060045562093a8060055568056bc75e2d631000006006556101906007556202a300600855916001600160a01b039081169182156200015d578116928315620001295716918215620000f25760018060a01b031991826001541617600155816002541617600255600354161760035551611f399081620001c28239f35b835162461bcd60e51b815260206004820152601060248201526f496e76616c696420747265617375727960801b6044820152606490fd5b845162461bcd60e51b815260206004820152600d60248201526c24b73b30b634b21037bbb732b960991b6044820152606490fd5b845162461bcd60e51b815260206004820152600d60248201526c24b73b30b634b2103a37b5b2b760991b6044820152606490fd5b600080fd5b634e487b7160e01b600052604160045260246000fd5b51906001600160a01b0382168203620001915756fe6080604052600436101561001b575b361561001957600080fd5b005b60003560e01c8063013cf08b146119e157806302a251a3146119c357806308c9d1e41461199a5780630d15fd771461197c578063117dcdee1461195357806317977c611461191557806332427be4146117d95780633617c3e1146117bb5780633932abb11461179d5780633e4f49e61461177257806340e58ee51461165157806343859632146115f35780634fa76ec9146115d5578063567813881461131d57806361d027b3146112f457806371fb5836146109685780638b2579891461094a578063b58131b01461092c578063b6b92f781461090e578063bc3f931f146108ab578063c7f758a8146107d4578063da35c664146107b6578063ddf0b009146106df578063df91f748146106b0578063e256888f14610693578063e26b2bea146104135763fe0d94c10361000e57602036600319011261040e5761015d611ead565b61016c600b5460043510611d83565b60043560005260096020526040600020610187600435611df0565b60088110156103f8576004036103bd57600b810154421061038157600f8101805460ff8160081c166103495761ffff191661010517905560005b600482015481101561030c576101da8160048401611dc2565b9054906101ea8360058601611dc2565b929054916101fb8560068801611dc2565b50926040519360009080549061021082611af0565b91600181169081156102f557506001146102c0575b505091600095939185879694039460031b1c9160018060a01b039160031b1c165af13d156102bb573d61025781611c54565b906102656040519283611b2a565b8152600060203d92013e5b156102835761027e90611ce8565b6101c1565b60405162461bcd60e51b815260206004820152601060248201526f115e1958dd5d1a5bdb8819985a5b195960821b6044820152606490fd5b610270565b90915060005260206000206000905b8282106102e157505084018185610225565b60018160209254848a0152019101906102cf565b60ff19168852505080151502850190508185610225565b610317600d54611ce8565b600d556004357f712ae1383f79ac853f8d882153778e0260ef8f03b504e2866e0593e04d2b291f600080a26001600055005b60405162461bcd60e51b815260206004820152601060248201526f105b1c9958591e48195e1958dd5d195960821b6044820152606490fd5b60405162461bcd60e51b8152602060048201526014602482015273151a5b595b1bd8dac81b9bdd08195e1c1a5c995960621b6044820152606490fd5b60405162461bcd60e51b8152602060048201526013602482015272141c9bdc1bdcd85b081b9bdd081c5d595d5959606a1b6044820152606490fd5b634e487b7160e01b600052602160045260246000fd5b600080fd5b3461040e5760208060031936011261040e57600435610435600b548210611d83565b6000526009815260406000209060048201906005600681850194019160405193848282549182815201908192600052836000209060005b8181106106765750505085610482910386611b2a565b60405190818388549182815201908198600052846000209060005b81811061066257505050826104b3910383611b2a565b8454916104bf83611cc4565b926104cd6040519485611b2a565b80845284840190819760005285600020916000905b8282106105b75750505050604051966060880190606089525180915260808801929060005b81811061059a575050508682038785015251808252908301969060005b81811061058657505050848603604086015251908186528082818801941b87010193926000965b8388106105585786860387f35b90919293948380610575600193601f198682030187528951611bf1565b97019301970196909392919361054b565b825189529784019791840191600101610524565b82516001600160a01b031685529386019391860191600101610507565b888860409d9a9d519260009387546105ce81611af0565b90818352600195868216918260001461064457505060011461060b575b506105fa816001960382611b2a565b8152019401910190929a979a6104e2565b60008981528481209650905b80821061062d57508101830194506105fa6105eb565b8654838301860152958501958d9490910190610617565b60ff19168685015291151590911b8201840195506105fa90506105eb565b82548452928601926001928301920161049d565b82546001600160a01b03168452928501926001928301920161046c565b3461040e57600036600319011261040e5760206040516127108152f35b3461040e57600036600319011261040e576060600c54600d54600e549060405192835260208301526040820152f35b3461040e57602036600319011261040e57600435610700600b548210611d83565b806000526009602052604060002061071782611df0565b60088110156103f857600203610778576020600b82600f7f9a2e42fd6722813d69113e7d0079d3d940171428df7373df9c7f7617cfda28929401600460ff1982541617905561076a600a82015442611d76565b9182910155604051908152a2005b60405162461bcd60e51b8152602060048201526016602482015275141c9bdc1bdcd85b081b9bdd081cdd58d8d95959195960521b6044820152606490fd5b3461040e57600036600319011261040e576020600b54604051908152f35b3461040e57602036600319011261040e576004356107f5600b548210611d83565b80600052600960205260406000209060018060a01b03600183015416906108a7600c84015491600d85015490600e86015460088701549061083a600989015493611df0565b93610882610856600361084f60028d01611b4b565b9b01611b4b565b6108746040519b8c9b8c5260208c61012091829101528c0190611bf1565b908a820360408c0152611bf1565b966060890152608088015260a087015260c086015260e0850152610100840190611c31565b0390f35b3461040e57604036600319011261040e576004356108c7611c3e565b906108d5600b548210611d83565b600052600960205260116040600020019060018060a01b0316600052602052602060ff6040600020541661090c6040518092611cdb565bf35b3461040e57600036600319011261040e576020600d54604051908152f35b3461040e57600036600319011261040e576020600654604051908152f35b3461040e57600036600319011261040e576020600854604051908152f35b3461040e5760a036600319011261040e576004356001600160401b03811161040e57610998903690600401611ca6565b6024356001600160401b03811161040e576109b7903690600401611ca6565b90604435906001600160401b03821161040e573660238301121561040e5781600401356109e381611cc4565b926109f16040519485611b2a565b81845260208401906024829360051b8201019036821161040e57602401915b8183106112d457505050606435906001600160401b03821161040e573660238301121561040e578160040135610a4581611cc4565b92610a536040519485611b2a565b818452602084016024819360051b8301019136831161040e57602401905b8282106112c4575050506001600160401b036084351161040e5736602360843501121561040e576084356004013592610aa984611cc4565b92610ab76040519485611b2a565b8484526020840180953660248260051b60843501011161040e57602460843501915b60248260051b608435010183106112785750506001546040516370a0823160e01b81523360048201529150602090829060249082906001600160a01b03165afa908115610e5a57600091611246575b50600654116112015786518251036111bc57865184510361116d57865115611131578551156110fe57600b5496610b5e88611ce8565b600b55876000526009602052604060002098888a5560018a01336bffffffffffffffffffffffff60a01b82541617905587516001600160401b038111610f4957610bb8818c6002610bb181830154611af0565b9101611d0e565b806020601f821160011461109057600091611085575b508160011b916000199060031b1c19161760028b01555b8051906001600160401b038211610f49578190610c0b828d6003610bb181830154611af0565b602090601f831160011461101357600092611008575b50508160011b916000199060031b1c19161760038a01555b51906001600160401b038211610f4957600160401b8211610f49576004890190610c6883835481855584611d53565b90600052602060002060005b838110610feb575050505051906001600160401b038211610f4957600160401b8211610f49576005870190610cae83835481855584611d53565b90600052602060002060005b838110610fd757505050505190600160401b8211610f49576006850154826006870155808310610f5f575b5090600685016000526020600020916000905b828210610e665750505050426007840155610d1560045442611d76565b926004610d2c600883019580875560055490611d76565b60098301908155600854600a840155600f8301805461ffff191690556001546040516318160ddd60e01b81529194919260209184919082906001600160a01b03165afa918215610e5a57600092610e26575b5060075491828102928184041490151715610e1057602095859360126127107f6c98a8c940418b35614f0cd02412d5c9606faff474cbb6cdd6640ba5d1a9f06b950491015533600052600a875283604060002055610ddd600c54611ce8565b600c55549354610df860405192606084526060840190611bf1565b948783015260408201528033940390a3604051908152f35b634e487b7160e01b600052601160045260246000fd5b9091506020813d602011610e52575b81610e4260209383611b2a565b8101031261040e57519086610d7e565b3d9150610e35565b6040513d6000823e3d90fd5b80518051906001600160401b038211610f4957610e8d82610e878854611af0565b88611d0e565b602090601f8311600114610ed9579282600194936020938695600092610ece575b5050600019600383901b1c191690841b1787555b01940191019092610cf8565b015190508c80610eae565b908660005260206000209160005b601f1985168110610f31575083602093600196938796938794601f19811610610f18575b505050811b018755610ec2565b015160001960f88460031b161c191690558c8080610f0b565b91926020600181928685015181550194019201610ee7565b634e487b7160e01b600052604160045260246000fd5b600686016000526020600020908382015b8183018110610f80575050610ce5565b80610f8d60019254611af0565b80610f9a575b5001610f70565b601f81118314610fb05750600081555b89610f93565b600090828252610fce601f60208420920160051c8201858301611cf7565b81835555610faa565b600190602084519401938184015501610cba565b82516001600160a01b031681830155602090920191600101610c74565b015190508b80610c21565b925060038c016000526020600020906000935b601f198416851061106a576001945083601f19811610611051575b505050811b0160038a0155610c39565b015160001960f88460031b161c191690558b8080611041565b81810151835560209485019460019093019290910190611026565b90508901518c610bce565b915060028c0160005260206000206000925b8b601f19841685106110e757506001935082601f198116106110ce575b5050811b0160028b0155610be5565b8b015160001960f88460031b161c191690558c806110bf565b8101518255602093840193600190920191016110a2565b60405162461bcd60e51b815260206004820152600b60248201526a456d707479207469746c6560a81b6044820152606490fd5b60405162461bcd60e51b81526020600482015260146024820152734d7573742070726f7669646520616374696f6e7360601b6044820152606490fd5b60405162461bcd60e51b815260206004820152602160248201527f546172676574732f63616c6c6461746173206c656e677468206d69736d6174636044820152600d60fb1b6064820152608490fd5b60405162461bcd60e51b815260206004820152601e60248201527f546172676574732f76616c756573206c656e677468206d69736d6174636800006044820152606490fd5b60405162461bcd60e51b815260206004820152601860248201527f42656c6f772070726f706f73616c207468726573686f6c6400000000000000006044820152606490fd5b90506020813d602011611270575b8161126160209383611b2a565b8101031261040e575189610b28565b3d9150611254565b8235906001600160401b03821161040e57366043836084350101121561040e5760249160209182916112b7903690608435018087013590604401611c6f565b8152019301929050610ad9565b8135815260209182019101610a71565b82356001600160a01b038116810361040e57815260209283019201610a10565b3461040e57600036600319011261040e576003546040516001600160a01b039091168152602090f35b3461040e57604036600319011261040e57600435602490813591600383101561040e57611348611ead565b611355600b548310611d83565b8160005260206009815260406000206008810154421061159d576009810154421161156b57601081013360005280835260ff60406000205416611537576001546040516370a0823160e01b8152336004820152949084908690839082906001600160a01b03165afa948515610e5a57600095611508575b5084156114d357600f83019081549060ff82169060088210156114bf5750156114af575b5050336000528252604060002060ff199060018282541617905560118201835260406000209081541660ff87161790556001851460001461148757600c01611439838254611d76565b90555b611447600e54611ce8565b600e556114576040518095611cdb565b8301527fb83d25c6a5d258561330739951487acb4bd09ba5190b5d32c4f261817d90679260403393a36001600055005b846114a157600d0161149a838254611d76565b905561143c565b600e0161149a838254611d76565b60ff1916600117905586806113f0565b634e487b7160e01b60009081526021600452fd5b83600f6064926040519262461bcd60e51b845260048401528201526e2737903b37ba34b733903837bbb2b960891b6044820152fd5b9094508381813d8311611530575b6115208183611b2a565b8101031261040e575193876113cc565b503d611516565b60405162461bcd60e51b815260048101849052600d818601526c105b1c9958591e481d9bdd1959609a1b6044820152606490fd5b50600c6064926040519262461bcd60e51b845260048401528201526b159bdd1a5b99c8195b99195960a21b6044820152fd5b5060126064926040519262461bcd60e51b8452600484015282015271159bdd1a5b99c81b9bdd081cdd185c9d195960721b6044820152fd5b3461040e57600036600319011261040e576020600754604051908152f35b3461040e57604036600319011261040e5760043561160f611c3e565b9061161d600b548210611d83565b600052600960205260106040600020019060018060a01b0316600052602052602060ff604060002054166040519015158152f35b3461040e57602036600319011261040e57600435611672600b548210611d83565b60008181526009602052604090206001810154336001600160a01b0391821614908115611764575b501561172e57600f01805460ff811660088110156103f8576005146116e95760ff191660061790557f416e669c63d9a3a5e36ee7cc7e2104b8db28ccd286aa18966e98fa230c73b08c600080a2005b60405162461bcd60e51b815260206004820152601f60248201527f43616e6e6f742063616e63656c2065786563757465642070726f706f73616c006044820152606490fd5b60405162461bcd60e51b815260206004820152600e60248201526d139bdd08185d5d1a1bdc9a5e995960921b6044820152606490fd5b90506002541633148361169a565b3461040e57602036600319011261040e576020611790600435611df0565b61090c6040518092611c31565b3461040e57600036600319011261040e576020600454604051908152f35b3461040e57600036600319011261040e576020600c54604051908152f35b3461040e57608036600319011261040e57600254604435906024359060043590606435906001600160a01b031633036118dc57821561189f576113888111611868577f6bbac32a5a2a92e26346ac330e58305d8235e3c375610b70b81be0ac57c8d2019360809383600455806005558160065582600755604051938452602084015260408301526060820152a1005b60405162461bcd60e51b815260206004820152600f60248201526e0a2eadee4eada40e8dede40d0d2ced608b1b6044820152606490fd5b60405162461bcd60e51b8152602060048201526015602482015274125b9d985b1a59081d9bdd1a5b99c81c195c9a5bd9605a1b6044820152606490fd5b60405162461bcd60e51b815260206004820152601160248201527027b7363c9031b4b931b6329037bbb732b960791b6044820152606490fd5b3461040e57602036600319011261040e576004356001600160a01b0381169081900361040e57600052600a6020526020604060002054604051908152f35b3461040e57600036600319011261040e576001546040516001600160a01b039091168152602090f35b3461040e57600036600319011261040e576020600e54604051908152f35b3461040e57600036600319011261040e576002546040516001600160a01b039091168152602090f35b3461040e57600036600319011261040e576020600554604051908152f35b3461040e57602036600319011261040e576004356000908152600960205260409020805460018201546001600160a01b031691611a2060028201611b4b565b611a2c60038301611b4b565b9160078101549260088201546009830154600a840154600b85015490600c86015492600d87015494600e88015496600f8901549860120154996040519d8e809e8152602001528c6101e06040819201528d01611a8791611bf1565b8c810360608e0152611a9891611bf1565b9960808c015260a08b015260c08a015260e0890152610100880152610120870152610140860152610160850152610180840160ff821690611ad891611c31565b60081c60ff1615156101a08401526101c08301520390f35b90600182811c92168015611b20575b6020831014611b0a57565b634e487b7160e01b600052602260045260246000fd5b91607f1691611aff565b90601f801991011681019081106001600160401b03821117610f4957604052565b9060405191826000825492611b5f84611af0565b908184526001948581169081600014611bce5750600114611b8b575b5050611b8992500383611b2a565b565b9093915060005260209081600020936000915b818310611bb6575050611b8993508201013880611b7b565b85548884018501529485019487945091830191611b9e565b915050611b8994506020925060ff191682840152151560051b8201013880611b7b565b919082519283825260005b848110611c1d575050826000602080949584010152601f8019910116010190565b602081830181015184830182015201611bfc565b9060088210156103f85752565b602435906001600160a01b038216820361040e57565b6001600160401b038111610f4957601f01601f191660200190565b929192611c7b82611c54565b91611c896040519384611b2a565b82948184528183011161040e578281602093846000960137010152565b9080601f8301121561040e57816020611cc193359101611c6f565b90565b6001600160401b038111610f495760051b60200190565b9060038210156103f85752565b6000198114610e105760010190565b818110611d02575050565b60008155600101611cf7565b9190601f8111611d1d57505050565b611b89926000526020600020906020601f840160051c83019310611d49575b601f0160051c0190611cf7565b9091508190611d3c565b91818110611d6057505050565b611b899260005260206000209182019101611cf7565b91908201809211610e1057565b15611d8a57565b60405162461bcd60e51b815260206004820152601060248201526f125b9d985b1a59081c1c9bdc1bdcd85b60821b6044820152606490fd5b8054821015611dda5760005260206000200190600090565b634e487b7160e01b600052603260045260246000fd5b611dfd600b548210611d83565b6000526009602052604060002060ff600f8201541660088110156103f85760058114611ea65760068114611e9f57600414611e995760088101544210611e93576009810154421115611e8d57600c810154600d820154916012611e6e611e638585611d76565b600e84015490611d76565b91015411611e86571115611e8157600290565b600390565b5050600390565b50600190565b50600090565b50600490565b5050600690565b5050600590565b600260005414611ebe576002600055565b60405162461bcd60e51b815260206004820152601f60248201527f5265656e7472616e637947756172643a207265656e7472616e742063616c6c006044820152606490fdfea2646970667358221220bf0ed618162ed3a6d7cd889ad2fba29f93bcedce3edc3ac620d670ba02bee7d264736f6c63430008140033","linkReferences":{}},"methodIdentifiers":{"PERCENTAGE_PRECISION()":"e256888f","cancel(uint256)":"40e58ee5","castVote(uint256,uint8)":"56781388","circleOwner()":"08c9d1e4","circleToken()":"117dcdee","execute(uint256)":"fe0d94c1","executionDelay()":"8b257989","getGovernanceStats()":"df91f748","getProposal(uint256)":"c7f758a8","getProposalActions(uint256)":"e26b2bea","getVote(uint256,address)":"bc3f931f","hasVoted(uint256,address)":"43859632","latestProposalIds(address)":"17977c61","proposalCount()":"da35c664","proposalThreshold()":"b58131b0","proposals(uint256)":"013cf08b","propose(string,string,address[],uint256[],bytes[])":"71fb5836","queue(uint256)":"ddf0b009","quorumPercentage()":"4fa76ec9","state(uint256)":"3e4f49e6","totalProposalsCreated()":"3617c3e1","totalProposalsExecuted()":"b6b92f78","totalVotes()":"0d15fd77","treasury()":"61d027b3","updateGovernanceParameters(uint256,uint256,uint256,uint256)":"32427be4","votingDelay()":"3932abb1","votingPeriod()":"02a251a3"},"id":6}