{"abi":[{"type":"constructor","inputs":[{"name":"_platformTreasury","type":"address","internalType":"address"}],"stateMutability":"nonpayable"},{"type":"receive","stateMutability":"payable"},{"type":"function","name":"BASE_INTEREST_RATE","inputs":[],"outputs":[{"name":"","type":"uint256","internalType":"uint256"}],"stateMutability":"view"},{"type":"function","name":"LIQUIDATION_PENALTY","inputs":[],"outputs":[{"name":"","type":"uint256","internalType":"uint256"}],"stateMutability":"view"},{"type":"function","name":"LIQUIDATION_THRESHOLD","inputs":[],"outputs":[{"name":"","type":"uint256","internalType":"uint256"}],"stateMutability":"view"},{"type":"function","name":"MAX_GUARANTOR_DISCOUNT","inputs":[],"outputs":[{"name":"","type":"uint256","internalType":"uint256"}],"stateMutability":"view"},{"type":"function","name":"MAX_INTEREST_RATE","inputs":[],"outputs":[{"name":"","type":"uint256","internalType":"uint256"}],"stateMutability":"view"},{"type":"function","name":"MIN_COLLATERAL_RATIO","inputs":[],"outputs":[{"name":"","type":"uint256","internalType":"uint256"}],"stateMutability":"view"},{"type":"function","name":"PRECISION","inputs":[],"outputs":[{"name":"","type":"uint256","internalType":"uint256"}],"stateMutability":"view"},{"type":"function","name":"SECONDS_PER_YEAR","inputs":[],"outputs":[{"name":"","type":"uint256","internalType":"uint256"}],"stateMutability":"view"},{"type":"function","name":"addGuarantor","inputs":[{"name":"loanId","type":"uint256","internalType":"uint256"},{"name":"guarantor","type":"address","internalType":"address"}],"outputs":[],"stateMutability":"nonpayable"},{"type":"function","name":"borrow","inputs":[{"name":"collateralToken","type":"address","internalType":"address"},{"name":"collateralAmount","type":"uint256","internalType":"uint256"},{"name":"borrowAmount","type":"uint256","internalType":"uint256"},{"name":"reputationScore","type":"uint256","internalType":"uint256"}],"outputs":[{"name":"","type":"uint256","internalType":"uint256"}],"stateMutability":"nonpayable"},{"type":"function","name":"calculateInterestRate","inputs":[{"name":"reputationScore","type":"uint256","internalType":"uint256"},{"name":"guarantorDiscount","type":"uint256","internalType":"uint256"}],"outputs":[{"name":"","type":"uint256","internalType":"uint256"}],"stateMutability":"view"},{"type":"function","name":"depositLiquidity","inputs":[],"outputs":[],"stateMutability":"payable"},{"type":"function","name":"getCollateralValue","inputs":[{"name":"token","type":"address","internalType":"address"},{"name":"amount","type":"uint256","internalType":"uint256"}],"outputs":[{"name":"","type":"uint256","internalType":"uint256"}],"stateMutability":"view"},{"type":"function","name":"getLendingStats","inputs":[],"outputs":[{"name":"totalBorrowed_","type":"uint256","internalType":"uint256"},{"name":"liquidityPool_","type":"uint256","internalType":"uint256"},{"name":"totalCollateralLocked_","type":"uint256","internalType":"uint256"}],"stateMutability":"view"},{"type":"function","name":"getLoanHealth","inputs":[{"name":"loanId","type":"uint256","internalType":"uint256"}],"outputs":[{"name":"","type":"uint256","internalType":"uint256"}],"stateMutability":"view"},{"type":"function","name":"getUserLoans","inputs":[{"name":"user","type":"address","internalType":"address"}],"outputs":[{"name":"","type":"uint256[]","internalType":"uint256[]"}],"stateMutability":"view"},{"type":"function","name":"isLiquidatable","inputs":[{"name":"loanId","type":"uint256","internalType":"uint256"}],"outputs":[{"name":"","type":"bool","internalType":"bool"}],"stateMutability":"view"},{"type":"function","name":"liquidate","inputs":[{"name":"loanId","type":"uint256","internalType":"uint256"}],"outputs":[],"stateMutability":"payable"},{"type":"function","name":"liquidityPool","inputs":[],"outputs":[{"name":"","type":"uint256","internalType":"uint256"}],"stateMutability":"view"},{"type":"function","name":"loans","inputs":[{"name":"","type":"uint256","internalType":"uint256"}],"outputs":[{"name":"borrower","type":"address","internalType":"address"},{"name":"collateralToken","type":"address","internalType":"address"},{"name":"collateralAmount","type":"uint256","internalType":"uint256"},{"name":"borrowedAmount","type":"uint256","internalType":"uint256"},{"name":"interestRate","type":"uint256","internalType":"uint256"},{"name":"createdAt","type":"uint256","internalType":"uint256"},{"name":"lastInterestAccrual","type":"uint256","internalType":"uint256"},{"name":"accruedInterest","type":"uint256","internalType":"uint256"},{"name":"isActive","type":"bool","internalType":"bool"},{"name":"reputationScore","type":"uint256","internalType":"uint256"},{"name":"guarantorDiscount","type":"uint256","internalType":"uint256"}],"stateMutability":"view"},{"type":"function","name":"nextLoanId","inputs":[],"outputs":[{"name":"","type":"uint256","internalType":"uint256"}],"stateMutability":"view"},{"type":"function","name":"owner","inputs":[],"outputs":[{"name":"","type":"address","internalType":"address"}],"stateMutability":"view"},{"type":"function","name":"pause","inputs":[],"outputs":[],"stateMutability":"nonpayable"},{"type":"function","name":"paused","inputs":[],"outputs":[{"name":"","type":"bool","internalType":"bool"}],"stateMutability":"view"},{"type":"function","name":"platformFee","inputs":[],"outputs":[{"name":"","type":"uint256","internalType":"uint256"}],"stateMutability":"view"},{"type":"function","name":"platformTreasury","inputs":[],"outputs":[{"name":"","type":"address","internalType":"address"}],"stateMutability":"view"},{"type":"function","name":"renounceOwnership","inputs":[],"outputs":[],"stateMutability":"nonpayable"},{"type":"function","name":"repay","inputs":[{"name":"loanId","type":"uint256","internalType":"uint256"}],"outputs":[],"stateMutability":"payable"},{"type":"function","name":"reputationDiscounts","inputs":[{"name":"","type":"uint256","internalType":"uint256"}],"outputs":[{"name":"","type":"uint256","internalType":"uint256"}],"stateMutability":"view"},{"type":"function","name":"setTokenPrice","inputs":[{"name":"token","type":"address","internalType":"address"},{"name":"price","type":"uint256","internalType":"uint256"}],"outputs":[],"stateMutability":"nonpayable"},{"type":"function","name":"tokenPrices","inputs":[{"name":"","type":"address","internalType":"address"}],"outputs":[{"name":"","type":"uint256","internalType":"uint256"}],"stateMutability":"view"},{"type":"function","name":"totalBorrowed","inputs":[],"outputs":[{"name":"","type":"uint256","internalType":"uint256"}],"stateMutability":"view"},{"type":"function","name":"totalCollateralLocked","inputs":[],"outputs":[{"name":"","type":"uint256","internalType":"uint256"}],"stateMutability":"view"},{"type":"function","name":"transferOwnership","inputs":[{"name":"newOwner","type":"address","internalType":"address"}],"outputs":[],"stateMutability":"nonpayable"},{"type":"function","name":"unpause","inputs":[],"outputs":[],"stateMutability":"nonpayable"},{"type":"function","name":"userLoans","inputs":[{"name":"","type":"address","internalType":"address"},{"name":"","type":"uint256","internalType":"uint256"}],"outputs":[{"name":"","type":"uint256","internalType":"uint256"}],"stateMutability":"view"},{"type":"event","name":"GuarantorAdded","inputs":[{"name":"loanId","type":"uint256","indexed":true,"internalType":"uint256"},{"name":"guarantor","type":"address","indexed":true,"internalType":"address"}],"anonymous":false},{"type":"event","name":"InterestAccrued","inputs":[{"name":"loanId","type":"uint256","indexed":true,"internalType":"uint256"},{"name":"interest","type":"uint256","indexed":false,"internalType":"uint256"}],"anonymous":false},{"type":"event","name":"LiquidityDeposited","inputs":[{"name":"amount","type":"uint256","indexed":false,"internalType":"uint256"}],"anonymous":false},{"type":"event","name":"LoanCreated","inputs":[{"name":"loanId","type":"uint256","indexed":true,"internalType":"uint256"},{"name":"borrower","type":"address","indexed":true,"internalType":"address"},{"name":"collateralToken","type":"address","indexed":false,"internalType":"address"},{"name":"collateralAmount","type":"uint256","indexed":false,"internalType":"uint256"},{"name":"borrowedAmount","type":"uint256","indexed":false,"internalType":"uint256"},{"name":"interestRate","type":"uint256","indexed":false,"internalType":"uint256"}],"anonymous":false},{"type":"event","name":"LoanLiquidated","inputs":[{"name":"loanId","type":"uint256","indexed":true,"internalType":"uint256"},{"name":"liquidator","type":"address","indexed":true,"internalType":"address"},{"name":"collateralSeized","type":"uint256","indexed":false,"internalType":"uint256"},{"name":"debtCovered","type":"uint256","indexed":false,"internalType":"uint256"}],"anonymous":false},{"type":"event","name":"LoanRepaid","inputs":[{"name":"loanId","type":"uint256","indexed":true,"internalType":"uint256"},{"name":"borrower","type":"address","indexed":true,"internalType":"address"},{"name":"repaidAmount","type":"uint256","indexed":false,"internalType":"uint256"},{"name":"interestPaid","type":"uint256","indexed":false,"internalType":"uint256"}],"anonymous":false},{"type":"event","name":"OwnershipTransferred","inputs":[{"name":"previousOwner","type":"address","indexed":true,"internalType":"address"},{"name":"newOwner","type":"address","indexed":true,"internalType":"address"}],"anonymous":false},{"type":"event","name":"Paused","inputs":[{"name":"account","type":"address","indexed":false,"internalType":"address"}],"anonymous":false},{"type":"event","name":"TokenPriceUpdated","inputs":[{"name":"token","type":"address","indexed":true,"internalType":"address"},{"name":"price","type":"uint256","indexed":false,"internalType":"uint256"}],"anonymous":false},{"type":"event","name":"Unpaused","inputs":[{"name":"account","type":"address","indexed":false,"internalType":"address"}],"anonymous":false}],"bytecode":{"object":"0x60803461013757601f6120bc38819003918201601f191683019291906001600160401b0384118385101761013c57816020928492604096875283398101031261013757516001600160a01b0390818116908190036101375760009160018355600154845191339082167f8be0079c531659141344cd1fd0a4f28419497f9722a3daafe3b4186f6b6457e08680a36001600160a81b0319163360ff60a01b1916176001556064600b558115610102575061012c91839160018060a01b03196009541617600955808052600860205280828120556014815260328282205560288152606482822055603c815260c88282205560508152205551611f6990816101538239f35b62461bcd60e51b815260206004820152601060248201526f496e76616c696420747265617375727960801b6044820152606490fd5b600080fd5b634e487b7160e01b600052604160045260246000fdfe6080806040526004361015610056575b50361561001b57600080fd5b61002734600a546117ad565b600a557f358d823cb455f7aa4c4236f5dc637bd07ffd144d0cf0ae4177eaf0a15d9b36d16020604051348152a1005b600090813560e01c90816302bf321f1461158b575080630d8cb2ff1461156e578063166f662414611551578063204120bc14611518578063211a4443146114ef57806326232a2e146114d15780632b037c57146114a957806334855d141461148c57806335d1e9201461146e578063371fd8e61461125657806338baa4c214610c3b5780633f4ba83a14610b9e578063415f12401461096d578063431f63c9146108bc5780634c19386c1461089e5780635c975abb14610878578063665a11ca1461085a578063715018a6146107fd5780637a9fffb7146107e05780638456cb591461077d57806387c514591461075f5780638da5cb5b1461073657806390a8ae9b1461071957806396101471146106ea5780639b8621d5146106cd578063a5796785146106ab578063aaf5eb681461068e578063b6e0768814610667578063ca593c59146105e1578063d8bad5bd1461058a578063da50d3b9146103d3578063e138818c146103aa578063e1ec3c6814610300578063e6a69ab8146102e1578063e6fce50a146102b75763f2fde38b0361000f57346102b45760203660031901126102b45761020461163c565b61020c611e3e565b6001600160a01b0390811690811561026057600154826bffffffffffffffffffffffff60a01b821617600155167f8be0079c531659141344cd1fd0a4f28419497f9722a3daafe3b4186f6b6457e08380a380f35b60405162461bcd60e51b815260206004820152602660248201527f4f776e61626c653a206e6577206f776e657220697320746865207a65726f206160448201526564647265737360d01b6064820152608490fd5b80fd5b50346102b45760203660031901126102b45760406020916004358152600883522054604051908152f35b50346102b457806003193601126102b45760206040516301e133808152f35b50346102b45760203660031901126102b457604061016091600435815260026020522060018060a01b0390818154169160018201541690600281015460038201546004830154600584015460068501549160078601549360ff60088801541695600b6009890154980154986040519a8b5260208b015260408a01526060890152608088015260a087015260c086015260e08501521515610100840152610120830152610140820152f35b50346102b457806003193601126102b4576009546040516001600160a01b039091168152602090f35b50346102b45760403660031901126102b4576001600160a01b036024358181169160043591839003610586578184526002602052604084209061041c60ff600884015416611807565b61042a818354163314611845565b8315158061057c575b1561054357600a8201805490600382101561050557600160401b8210156104f1579061046491600182018155611657565b819291549060031b9186831b921b1916179055600b8101805460a681018091116104dd5781816104ab92600494556101f48091116104d5575b506009840154905490611901565b9101557f7823718703355ed005925362bc38ee9ed2c81f1e12adcfb22ac621b12eea28938380a380f35b81553861049d565b634e487b7160e01b86526011600452602486fd5b634e487b7160e01b87526041600452602487fd5b60405162461bcd60e51b815260206004820152601660248201527513585e0819dd585c985b9d1bdc9cc81c995858da195960521b6044820152606490fd5b60405162461bcd60e51b815260206004820152601160248201527024b73b30b634b21033bab0b930b73a37b960791b6044820152606490fd5b5033841415610433565b8380fd5b50346102b45760403660031901126102b4576105a461163c565b6001600160a01b03168152600360205260408120805460243592908310156102b45760206105d28484611657565b90549060031b1c604051908152f35b50806003193601126102b457341561062f576105ff34600a546117ad565b600a557f358d823cb455f7aa4c4236f5dc637bd07ffd144d0cf0ae4177eaf0a15d9b36d16020604051348152a180f35b60405162461bcd60e51b815260206004820152601060248201526f04d757374206465706f736974203e20360841b6044820152606490fd5b50346102b45760203660031901126102b4576020610686600435611b38565b604051908152f35b50346102b457806003193601126102b45760206040516127108152f35b50346102b45760403660031901126102b4576020610686602435600435611901565b50346102b457806003193601126102b45760206040516103e88152f35b50346102b457806003193601126102b4576060600554600a546006549060405192835260208301526040820152f35b50346102b457806003193601126102b4576020604051612ee08152f35b50346102b457806003193601126102b4576001546040516001600160a01b039091168152602090f35b50346102b457806003193601126102b4576020600454604051908152f35b50346102b457806003193601126102b457610796611e3e565b61079e611e96565b6001805460ff60a01b1916600160a01b1790556040513381527f62e78cea01bee320cd4e420270b5ea74000d11b0c9f74754ebdbfc544b05a25890602090a180f35b50346102b457806003193601126102b4576020604051613a988152f35b50346102b457806003193601126102b457610816611e3e565b600180546001600160a01b0319811690915581906001600160a01b03167f8be0079c531659141344cd1fd0a4f28419497f9722a3daafe3b4186f6b6457e08280a380f35b50346102b457806003193601126102b4576020600a54604051908152f35b50346102b457806003193601126102b457602060ff60015460a01c166040519015158152f35b50346102b457806003193601126102b4576020600554604051908152f35b50346102b45760403660031901126102b4576108d661163c565b602435906108e2611e3e565b6001600160a01b0316906108f7821515611685565b80156109385760207fceb40be0a58aa33916c199e469842b614ef313295573c15d82f85cc9d1a89d329183855260078252806040862055604051908152a280f35b60405162461bcd60e51b815260206004820152600d60248201526c496e76616c696420707269636560981b6044820152606490fd5b50602080600319360112610b9a57600435610986611edd565b80835260028252604083209160088301906109a460ff835416611807565b6109ad83611c8c565b600184019360018060a01b03808654169560028301946109cf86548099611975565b956109e360076003870154960154866117ad565b966127109081810290808204831490151715610b4f57610a0689612ee0926116ea565b1015610b63576103e8808902908982041489151715610b4f57610a32610a539392610a4792048a6117ad565b96610a3f88341015611882565b6005546117ba565b600555546006546117ba565b600655610a6286600a546117ad565b600a55805460ff191690555460405163a9059cbb60e01b815233600482015260248101889052918491839160449183918c91165af18015610b4457610aae918891610b17575b50611761565b85813411610aef575b50506040519384528301527fd1b144c94c58ceab69737edeed9e57e7a7bf0e63c3232da2b7c1e65d7ab7f3d060403393a36001815580f35b808080610aff610b1095346117ba565b335af1610b0a6117c7565b506118c5565b3885610ab7565b610b379150843d8611610b3d575b610b2f8183611727565b810190611749565b38610aa8565b503d610b25565b6040513d89823e3d90fd5b634e487b7160e01b8c52601160045260248cfd5b60405162461bcd60e51b815260048101889052600f60248201526e4c6f616e206973206865616c74687960881b6044820152606490fd5b5080fd5b50346102b457806003193601126102b457610bb7611e3e565b60015460ff8160a01c1615610bff5760ff60a01b19166001556040513381527f5db9ee0a495bf2e6ff9c91a7834c1ba4fdd244a5e8aa4e537bd38aeae4b073aa90602090a180f35b60405162461bcd60e51b815260206004820152601460248201527314185d5cd8589b194e881b9bdd081c185d5cd95960621b6044820152606490fd5b50346102b45760803660031901126102b457610c5561163c565b90610c5e611edd565b610c66611e96565b610c7a6001600160a01b0383161515611685565b6024351561121857604435156111d357606480351161118e57604435600a541061115057610caa60243583611975565b613a988060443502906044358204036110f75761271090041161110b576103206014606435046014810290808204601414901517156110f757825260086020526040822054808211156110ef57610d00916117ba565b905b81156110e757905b6107d08082116110df575b506040516323b872dd60e01b815233600482015230602480830191909152356044820152602081606481866001600160a01b0389165af19081156110d45790610d649184916110bb5750611761565b6004549160001983146110a7576001830160045560405180602081011067ffffffffffffffff602083011117611091576020810160405281815260405190610dab8261170a565b33825260018060a01b0386166020830152602435604083015260443560608301528360808301524260a08301524260c08301528260e08301526001610100830152606435610120830152610140820152816101608201528382526002602052604082209060018060a01b038151166bffffffffffffffffffffffff60a01b9081845416178355600183019060018060a01b036020840151169082541617905560408101516002830155606081015160038301556080810151600483015560a0810151600583015560c0810151600683015560e0810151600783015560088201610100820151151560ff80198354169116179055610120810151600983015561014081015180519067ffffffffffffffff821161107d57600160401b821161107d57600a84015482600a860155808310611053575b50602001600a8401855260208520855b8381106110365750505050610160600b910151910155338152600360205260408120805490600160401b8210156110225790610f3091600182018155611657565b81549060031b9085821b91600019901b1916179055610f536044356005546117ad565b600555610f646024356006546117ad565b600655610f75604435600a546117ba565b600a5580808080604435335af1610f8a6117c7565b5015610fe75760209360019260405191848060a01b031682526024358683015260443560408301526060820152837f6850239cc8fa897edd78465a234c3240b84bbfb1c55cac4b85364de88ce7109560803393a355604051908152f35b60405162461bcd60e51b8152602060048201526013602482015272115512081d1c985b9cd9995c8819985a5b1959606a1b6044820152606490fd5b634e487b7160e01b83526041600452602483fd5b82516001600160a01b031681830155602090920191600101610eef565b600a8501865260208620908382015b8183018110611072575050610edf565b878155600101611062565b634e487b7160e01b85526041600452602485fd5b634e487b7160e01b600052604160045260246000fd5b634e487b7160e01b81526011600452602490fd5b610b37915060203d602011610b3d57610b2f8183611727565b6040513d85823e3d90fd5b905038610d15565b809150610d0a565b505080610d02565b634e487b7160e01b83526011600452602483fd5b60405162461bcd60e51b815260206004820152601760248201527f496e73756666696369656e7420636f6c6c61746572616c0000000000000000006044820152606490fd5b60405162461bcd60e51b8152602060048201526016602482015275496e73756666696369656e74206c697175696469747960501b6044820152606490fd5b60405162461bcd60e51b815260206004820152601860248201527f496e76616c69642072657075746174696f6e2073636f726500000000000000006044820152606490fd5b60405162461bcd60e51b815260206004820152601960248201527f426f72726f7720616d6f756e74206d757374206265203e2030000000000000006044820152606490fd5b60405162461bcd60e51b81526020600482015260166024820152750436f6c6c61746572616c206d757374206265203e20360541b6044820152606490fd5b50602080600319360112610b9a5760043561126f611edd565b808352600282526040832091600883019261128d60ff855416611807565b80546001600160a01b0394906112a69086163314611845565b6112af84611c8c565b6003820191868484549360078401986127106112e66112d08c5480996117ad565b976112dd89341015611882565b600b54906116c1565b04948a86611408575b9061131961131161137b96979861130c6001958d549054906117ad565b6117ba565b600a546117ad565b600a5561132989546005546117ba565b600555600281019361133e85546006546117ba565b600655805460ff191690550154915460405163a9059cbb60e01b815233600482015260248101919091529485939190921691839182906044820190565b03925af18015610b44576113959188916113f15750611761565b858134116113da575b5050549254906040519384528301527f553c9087bff5b534e499a66dac3fa9db2962cd252ea01165239755836ae5345e60403393a36001815580f35b808080610aff6113ea95346117ba565b388561139e565b610b379150853d8711610b3d57610b2f8183611727565b509250928080808787600999969954165af16114226117c7565b50156114335792899287928a6112ef565b60405162461bcd60e51b8152600481018890526013602482015272119959481d1c985b9cd9995c8819985a5b1959606a1b6044820152606490fd5b50346102b457806003193601126102b4576020600654604051908152f35b50346102b457806003193601126102b45760206040516107d08152f35b50346102b45760403660031901126102b45760206106866114c861163c565b60243590611975565b50346102b457806003193601126102b4576020600b54604051908152f35b50346102b45760203660031901126102b457602061150e6004356119e6565b6040519015158152f35b50346102b45760203660031901126102b4576020906040906001600160a01b0361154061163c565b168152600783522054604051908152f35b50346102b457806003193601126102b45760206040516101f48152f35b50346102b457806003193601126102b45760206040516103208152f35b905034610b9a576020908160031936011261163857916001600160a01b036115b161163c565b1681526003825260408120908154808552838501908193835284832090835b81811061162457505050846115e6910385611727565b60405193838594850191818652518092526040850193925b82811061160d57505050500390f35b8351855286955093810193928101926001016115fe565b8254845292860192600192830192016115d0565b8280fd5b600435906001600160a01b038216820361165257565b600080fd5b805482101561166f5760005260206000200190600090565b634e487b7160e01b600052603260045260246000fd5b1561168c57565b60405162461bcd60e51b815260206004820152600d60248201526c24b73b30b634b2103a37b5b2b760991b6044820152606490fd5b818102929181159184041417156116d457565b634e487b7160e01b600052601160045260246000fd5b81156116f4570490565b634e487b7160e01b600052601260045260246000fd5b610180810190811067ffffffffffffffff82111761109157604052565b90601f8019910116810190811067ffffffffffffffff82111761109157604052565b90816020910312611652575180151581036116525790565b1561176857565b60405162461bcd60e51b815260206004820152601a60248201527f436f6c6c61746572616c207472616e73666572206661696c65640000000000006044820152606490fd5b919082018092116116d457565b919082039182116116d457565b3d15611802573d9067ffffffffffffffff821161109157604051916117f6601f8201601f191660200184611727565b82523d6000602084013e565b606090565b1561180e57565b60405162461bcd60e51b815260206004820152600f60248201526e4c6f616e206e6f742061637469766560881b6044820152606490fd5b1561184c57565b60405162461bcd60e51b815260206004820152600e60248201526d2737ba103637b0b71037bbb732b960911b6044820152606490fd5b1561188957565b60405162461bcd60e51b8152602060048201526014602482015273125b9cdd59999a58da595b9d081c185e5b595b9d60621b6044820152606490fd5b156118cc57565b60405162461bcd60e51b815260206004820152600d60248201526c1499599d5b990819985a5b1959609a1b6044820152606490fd5b601461032091046014810290808204601414901517156116d457600052600860205260406000205480821160001461196b5761193c916117ba565b905b808211156119625761194f916117ba565b6107d080821161195d575090565b905090565b5050600061194f565b505060009061193e565b6001600160a01b03166000908152600760205260409020549081156119ab57670de0b6b3a7640000916119a7916116c1565b0490565b60405162461bcd60e51b8152602060048201526013602482015272151bdad95b881c1c9a58d9481b9bdd081cd95d606a1b6044820152606490fd5b600090808252602090600282526040832090604051611a048161170a565b60018060a01b0390818454168152600182818601541691868101928352600286015495604082019687526003810154976060830198895260048201546080840152600582015460a0840152600682015460c0840152600782015460e084015260ff600883015416936101008401941515855260098301546101208501528a600a8401916040518094808554928381520194845280842093905b8b838310611b22575050505050509181611abe600b93610160950382611727565b61014085015201549101525115611b1a57611af393611aed92611ae5925116905190611975565b935191611d04565b906117ad565b91612710918281029281840414901517156110a75750612ee091611b16916116ea565b1090565b505050505090565b8554168652948501949383019390830190611a9d565b906000918083526020906002825260408420604051611b568161170a565b60018060a01b0390818354168152600182818501541691868101928352600285015494604082019586526003810154976060830198895260048201546080840152600582015460a0840152600682015460c0840152600782015460e084015260ff600883015416936101008401941515855260098301546101208501528b600a8401916040518094808554928381520194845280842093905b8b838310611c76575050505050509181611c10600b93610160950382611727565b61014085015201549101525115611c6f57611c389392611aed92611ae5925116905190611975565b9061271090818102918183041490151715611c5b57611c589293506116ea565b90565b634e487b7160e01b84526011600452602484fd5b5050505050565b8554168652948501949383019390830190611bef565b806000526002602052604060002060ff60088201541615611d0057611cb082611d04565b9081611cbb57505050565b7f3d8708181c6452c5711a2b4c6ed3f12149f6ea35f78549aba00a89d041e766ca9181600760209301611cef8382546117ad565b9055600642910155604051908152a2565b5050565b600090815260206002815260408220604051611d1f8161170a565b60018060a01b039283835416825260019184838501541682820152600284015460408201526003840154936060820194855260048101549560808301968752600582015460a084015260068201549460c08401958652600783015460e085015260ff60088401541694610100850195151586526009840154610120860152600a84019160405180948385549283815201948d52838d20938d915b838310611e27575050505050509181611dd9600b93610160950382611727565b61014085015201549101525115611e2157611df59051426117ba565b928315611e1a575091611e156119a79264496cebb80094519051906116c1565b6116c1565b9250505090565b50505090565b855481168752958101959484019491840191611db9565b6001546001600160a01b03163303611e5257565b606460405162461bcd60e51b815260206004820152602060248201527f4f776e61626c653a2063616c6c6572206973206e6f7420746865206f776e65726044820152fd5b60ff60015460a01c16611ea557565b60405162461bcd60e51b815260206004820152601060248201526f14185d5cd8589b194e881c185d5cd95960821b6044820152606490fd5b600260005414611eee576002600055565b60405162461bcd60e51b815260206004820152601f60248201527f5265656e7472616e637947756172643a207265656e7472616e742063616c6c006044820152606490fdfea2646970667358221220898b4dfbdd001cf364c63e356bb8ab41b81ba9755958f744bbf075098e2621a164736f6c63430008140033","linkReferences":{}},"methodIdentifiers":{"BASE_INTEREST_RATE()":"0d8cb2ff","LIQUIDATION_PENALTY()":"9b8621d5","LIQUIDATION_THRESHOLD()":"90a8ae9b","MAX_GUARANTOR_DISCOUNT()":"166f6624","MAX_INTEREST_RATE()":"34855d14","MIN_COLLATERAL_RATIO()":"7a9fffb7","PRECISION()":"aaf5eb68","SECONDS_PER_YEAR()":"e6a69ab8","addGuarantor(uint256,address)":"da50d3b9","borrow(address,uint256,uint256,uint256)":"38baa4c2","calculateInterestRate(uint256,uint256)":"a5796785","depositLiquidity()":"ca593c59","getCollateralValue(address,uint256)":"2b037c57","getLendingStats()":"96101471","getLoanHealth(uint256)":"b6e07688","getUserLoans(address)":"02bf321f","isLiquidatable(uint256)":"211a4443","liquidate(uint256)":"415f1240","liquidityPool()":"665a11ca","loans(uint256)":"e1ec3c68","nextLoanId()":"87c51459","owner()":"8da5cb5b","pause()":"8456cb59","paused()":"5c975abb","platformFee()":"26232a2e","platformTreasury()":"e138818c","renounceOwnership()":"715018a6","repay(uint256)":"371fd8e6","reputationDiscounts(uint256)":"e6fce50a","setTokenPrice(address,uint256)":"431f63c9","tokenPrices(address)":"204120bc","totalBorrowed()":"4c19386c","totalCollateralLocked()":"35d1e920","transferOwnership(address)":"f2fde38b","unpause()":"3f4ba83a","userLoans(address,uint256)":"d8bad5bd"},"id":4}